:020000040000fa
:080000000001040000000000f3
:020000040000fa
:10000800f8100000f8100000f8100000f8100000c8
:10001800f8100000f8100000f8100000f8100000b8
:10002800f8100000f8100000f8100000f8100000a8
:10003800f8100000f8100000f8100000f810000098
:10004800f8100000f8100000f8100000f810000088
:10005800f8100000f8100000f8100000f810000078
:10006800f8100000f8100000f8100000f810000068
:10007800f810000050100000de100000f81000001a
:10008800f8100000f8100000f810000054170000e5
:10009800f8100000f8100000f8100000f810000038
:1000a800f8100000f8100000f8100000f810000028
:1000b800fc040000f8100000f8100000f810000020
:1000c800f8100000f8100000f8100000f810000008
:1000d800f8100000f8100000f8100000f8100000f8
:1000e800f8100000f8100000f8100000f8100000e8
:0800f800f8100000f8100000f0
:020000040000fa
:10010800f8100000f8100000f8100000f8100000c7
:10011800f8100000f8100000f8100000f8100000b7
:10012800f8100000f8100000f8100000f8100000a7
:10013800f8100000f8100000f8100000f810000097
:10014800f8100000f8100000f8100000f810000087
:10015800f8100000f8100000f8100000f810000077
:10016800f8100000f8100000f8100000f810000067
:10017800f810000050100000de100000f810000019
:10018800f8100000f8100000f810000054170000e4
:10019800f8100000f8100000f8100000f810000037
:1001a800f8100000f8100000f8100000f810000027
:1001b800fc040000f8100000f8100000f81000001f
:1001c800f8100000f8100000f8100000f810000007
:1001d800f8100000f8100000f8100000f8100000f7
:1001e800f8100000f8100000f8100000f8100000e7
:0801f800f8100000f8100000ef
:020000040000fa
:10020000efa920000e7f22000e01880000000000f0
:10021000000020000000e000020032000001200089
:10022000200288000c000700002a220001002000a4
:1002300011000700000020000000e0000200320072
:100240000000020000000000b422020000000000d4
:100250000040da000000fe004440a90080002000b9
:100260000000e0000300320000002000a001880030
:100270004440a8000000060091018800800078003a
:100280000000eb0015003700e280400032a0b4000f
:100290009101ba00e280400032a0b4009102ba009d
:1002a000e280400032a0b4000002eb00472bde00e9
:1002b000f507b200602ce10004003a000059eb00a1
:1002c0008301e900fdff3e00040037006128e100e2
:1002d000010032000082eb00040007001101ba00a7
:1002e0000200e000e8ff3a00000006003159ba00c1
:1002f0008301e9000c0032002159ba008301e900b2
:10030000080032000400e00003003a00e2804000f0
:1003100032a0b400f5ff370011d9ba008301e9001b
:10032000faff3a008100e800e180400032a0b4000a
:100330000000060003f0a200889fbe008a9fbe0056
:100340008c1f7800f3000700fa0033006450e100ce
:100350004f0032006420e1005200320003826c0042
:1003600007003b000905d0000306d000820f5400af
:100370000c065d000200390002003200890178009d
:10038000030678008582550004003d000003fd004f
:100390008103fd008502ea008b854200840f720014
:1003a00002003b0060001000e08018006011b800ff
:1003b0000005eb007a28e1000a0039000600780009
:1003c000c75ddd00f707b200878075002d0037009c
:1003d000828171000a017800610560008180d1008e
:1003e0000080d3008502e900f9ff3b0006044000cd
:1003f0008784480002003b0060041400e0841c0075
:100400000988a300070032008a817100828171008f
:10041000610164008904d1000884d3008b05e800e1
:10042000170037000978a30013003a000b00e00022
:10043000130034008b05e9000804440089844c0053
:100440000a4474000978a3000d003a000b00e00094
:10045000070034008b05e9000804440089844c003f
:1004600001003a000b0020000978a300f7ff3200da
:100470000001eb0002003700828171000a01780060
:10048000690007000cf0a70001f0a000b2003700df
:100490006420e10002003a00838f6c00b200330058
:1004a0000801be000200be00ab003700889fbe00fe
:1004b0008a9fbe008c1f7800960007009d003300c5
:1004c00003866c006450e1002e0032006420e100dd
:1004d000330032006150e1002f0032006120e10062
:1004e0003100320085855500eb07b000090020007f
:1004f00008042000050037000804440089844c00eb
:100500000a0031000603430087834b0000015300bb
:1005100081815b00f8ff33000203be000800a000e9
:100520000804440089844c00f6ff3900c639dd0018
:100530008301730001003200130020008904d10000
:100540000884d3000998a300050032000800a70022
:100550000300a0008904d1000884d3008b05e800c3
:100560008904d1000884d3000001eb000281d2008d
:100570002d00070001f0a1000cf0a70001f0a00081
:10058000750037006420e100770032000801be00ea
:100590000200be00f7ff37006120e1007200320068
:1005a0006000b800f3ff37000000200001f82700ca
:1005b000f0ff37000001be00410007000470a700f3
:1005c00003f0a10003f8a30013003a006509b1008d
:1005d00010003200090035006928e10002003500f2
:1005e0000100280000000500000040008180480054
:1005f0008502e900fcff3a0000000600f88f420087
:10060000050035008100d1000080d3008502e8009c
:10061000fcff3a00000006008000eb00000005002f
:100620006011b8008700370081002000618055000c
:100630000b003d000b00200061fe2f000100e100d7
:100640001d00340082817100610164008904d100c1
:100650000884d3000000e800faff3a00710020008f
:1006600061006400030070000200600009003200b5
:1006700061044400e0844c000988a50005003200b4
:100680008b05e8006808e10002003a008904d10007
:100690000884d300f20f20000258e10005003d005d
:1006a000c75ddd00f907b200898075000800780099
:1006b000000006000bf827008b0078000000050002
:1006c000c70ade00f107b200f50fb20008003200e1
:1006d000e1cf4200020032000170a00024000500ba
:1006e000810f70000100320004080500440005007d
:1006f000810f700002003a00140005008502e90035
:100700000000400081c04800fcff3b000170a000d9
:10071000240005000004be00e9ff07000003be003e
:100720000405be000200be00e5ff0700844f75000f
:10073000000006000200be006450e1000500360023
:100740006420e100020036000968a30001003a00bd
:100750000800be000160a0004f0678004f05be00f3
:100760004f04be0000000600f0ff2f00f1ff27003d
:10077000f9ff3700889fbe008a9fbe008c1f78005b
:10078000e4ff0700ebff330003866c006450e100d8
:10079000240032006420e100270032006150e100b3
:1007a000220032006120e100210032008b854200ee
:1007b000eb07b1000134b800003ab8000804420069
:1007c00089844a00013ab8000030b80088804000af
:1007d00009014a0004003300000040008180480005
:1007e000020149008b05e900c909dd0083017000a1
:1007f0000100320013002000c814de004814dd00a0
:100800004709de001200b200c808de00088470004c
:1008100085ff070001f0a1000cf0a70001f0a00087
:10082000cdff37006120e100cfff32000801be009c
:100830000200be00f7ff37006150e100fcff3a0004
:10084000c9ff3700889fbe008a9fbe0000827000eb
:100850000402710004827100260032000004be0010
:100860000200be006011b8006b0920009502200054
:100870000182cf000a0039000541b1000082cf009b
:10088000070039000541b1000982cf00040039009a
:100890000541b1000882cf00010039000541b100d7
:1008a00005425200120032000a003b0082817100b2
:1008b000610164008100d1000080d3008984d300ed
:1008c0000884d3008b05e8000442e800f7ff3a00f3
:1008d000070037000804440089844c0000004800e9
:1008e000818048008b05e9000442e900f9ff3a00e5
:1008f0004dff07004f05be004f04be00000006007c
:020000040000fa
:100900000f0000005f000000af000000ff000000cb
:020000040000fa
:100910000000fa000042eb000002fd0093eab7007d
:100920000002fd000060fe00e00807000300370041
:1009300000000000010037000000000034a9200082
:10094000144278000482fb00cfa2de005600200093
:1009500007002000860f5200878f5a00f4ff3e00e8
:100960000460010005003700120037001500370051
:10097000f1ff3700f0ff3700160037000060fe007f
:10098000ac0b07000060fe004c0d07000042780031
:100990000002fd008eeab7000002fd000060fe00cc
:1009a00014c0b3000002fd0093eab7000002fd008e
:1009b000100037000060fe000e040700110607005b
:1009c0000c0037000060fe000a0407000d06070057
:1009d000080037000060fe000042eb000002fd004e
:1009e00092eab7000002fd000204070005060700b6
:1009f00000000000d1ff37003600f800809fbe00e5
:100a0000829fbe00849fbe00869fbe00889fbe005e
:100a10004400f8004200f8000000fa00d4a82000ca
:100a200014427800e04f5200080032000002eb0050
:100a3000c408880086c0a9000042eb000002fd0047
:100a40008deab7000002fd000400370014c0b300b7
:100a50000002fd0072eab7000002fd0005178000e9
:100a60000404200004826200e00f52001f003a00dc
:100a7000045480000402e800045488002802800026
:100a80001902800046000700190288002802880029
:100a90002802800019028000c100070019028800a6
:100aa0002802880044a92000144278000482fb0038
:100ab00068026200e00f520006003200e45380003a
:100ac0000402e800e45388000002eb00f4538800bd
:100ad000120037000002eb00e4538800f45380005a
:100ae0000402e800f45388000c00370014c0b3007f
:100af0000002fd006eeab7000002fd000042eb00bc
:100b00000002fd0077eab7000002fd000002eb00e2
:100b1000e45388000002eb00f453880028028000b0
:100b200019028000e00007001902880028028800ee
:100b3000e45380008402e80004a9200014427800f5
:100b40000482fb0085007800040078002802800001
:100b5000190280002a08070019028800280288006c
:100b600028028000190280008f0a070019028800fd
:100b7000280288008880a9000080fa004200f9005d
:100b80004400f9004f04be004f03be004f02be00f8
:100b90004f01be004f00be003600f90000400600c5
:100ba0000400fa00e8c2a90000000000d682a900f3
:100bb000000000001000200001002000520e07007d
:100bc000d682a800000000001000200001002000d4
:100bd0004d0e0700341780004722de00614262009c
:100be0000482fb00040f78000042eb0024479800c9
:100bf00012003700e8c2a800000000001e027800c2
:100c000004024200040f7800341780004722de00ff
:100c1000614262000482fb001e0f7200e8c2a9005c
:100c2000000000001000200001002000360e070028
:100c30002e4290000442e800244798002e42900083
:100c4000e74f5200ebff3600d682a90000000000fb
:100c5000041020001e026200e00f52000500320066
:100c600000c2eb000002fd0076eab7000002fd00c2
:100c7000040037001e027800044278000400780067
:100c800076eab70064a72000144278000440780098
:100c90000d000700004278000002fd0077eab7006f
:100ca0000002fd0074a7200014427800ec4f4200bf
:100cb00002003e00e042a90001003700e042a80027
:100cc0000080fa00000006000400fa0020479800a7
:100cd0002e429000ea4f5200120036000002eb0054
:100ce000040f7800040037002e4290000442e9000f
:100cf000244798001e0fe8002e4290008482fb00db
:100d0000b4002000110009008482d800010278009c
:100d1000044278000482fb009e0f5200f2ff3d0067
:100d2000020037000042eb0024479800f5a820009d
:100d3000954278002e42900084cf5200110032007c
:100d400064a92000144278000442e8000002fd007b
:100d500096eab7000002fd0064a920001442780062
:100d6000ee4f520004003e00f4a820001442780028
:100d700024479800060037002e4090008feab70005
:100d8000030037000042eb000400780096eab70049
:100d90002e429000044078000080fa000000060017
:100da0000000fa004416800068026200e00f520062
:100db000210032004416800064026200e00f5200fd
:100dc0001d0032001516800004002100048262001c
:100dd000e00f52000c00320000000000d6e2a80034
:100de00000000000d662a80000000000d1c2a800e8
:100df0000000000014c0b3000002fd0090eab7003c
:100e00000002fd002600370000000000d6e2a90025
:100e100000000000d662a80000000000d1c2a900b6
:100e2000000000000042eb000002fd0090eab70065
:100e30000002fd001a0037004416800064026200c0
:100e4000e00f52000c00320000000000d6e2a800c3
:100e500000000000d662a90000000000d1c2a90075
:100e6000000000000042eb000002fd0090eab70025
:100e70000002fd000a00370000000000d6e2a800d2
:100e800000000000d662a90000000000d1c2a80046
:100e90000000000014c0b3000400780090eab7001e
:100ea0000080fa00000006000c00fa00d6a2a8009c
:100eb00000000000d6c2a900000000000002eb0004
:100ec000040f78000b00370074a72000144278004c
:100ed0008482fb00064828001e02780004024200bb
:100ee0000402430014027800848f5200050036008b
:100ef0001e0fe8001e027800e30f5200f2ff3600da
:100f000001003700000000001e027800e00f5200d0
:100f10001a003a0004a9200014427800e14f520060
:100f20000b003a0094a52000144278000002fd0056
:100f300078eab7000002fd0014a6200014427800f1
:100f40000002fd0079eab7000002fd00a4013700ad
:100f5000d4a52000144278000002fd0078eab70012
:100f60000002fd0054a62000144278000002fd009b
:100f700079eab7000002fd00990137001e027800ef
:100f8000e30f52001a00360004a920001442780032
:100f9000e14f52000b003a0064a520001442780093
:100fa0000002fd0078eab7000002fd00e4a5200081
:100fb000144278000002fd0079eab7000002fd004b
:100fc00087013700a4a52000144278000002fd002c
:100fd00078eab7000002fd0024a620001442780041
:100fe0000002fd0079eab7000002fd007c01370035
:100ff0001e027800e10f52007c003a0004a9200094
:1010000014427800e14f52003c003a0074a72000df
:10101000144278008480fb0084a5200014427800ec
:101020000480fb0094a52000144278008483fb0018
:10103000054828001e027800040242000482420093
:10104000140378001e02e90005482800040242004b
:101050000482420094027800010278008001780046
:10106000070178008600780005007800010207007b
:1010700000027800044278000400780078eab700a3
:1010800074a72000144278008480fb0004a620008e
:10109000144278000480fb0014a62000144278005b
:1010a0008483fb00054828001e02780004024200e9
:1010b00004824200140378001e02e900054828005b
:1010c0000402420004824200940278000102780087
:1010d000800178000701780086007800050078001c
:1010e000e401070000027800044278000002fd00dd
:1010f00079eab7000002fd003901370074a720002b
:10110000144278008480fb00c4a5200014427800bb
:101110000480fb00d4a52000144278008483fb00e7
:10112000054828001e0278000402420004824200a2
:10113000140378001e02e90005482800040242005a
:101140000482420094027800010278008001780055
:10115000070178008600780005007800c5010700c7
:1011600000027800044278000400780078eab700b2
:1011700074a72000144278008480fb0044a620005d
:10118000144278000480fb0054a62000144278002a
:101190008483fb00054828001e02780004024200f8
:1011a00004824200140378001e02e900054828006a
:1011b0000402420004824200940278000102780096
:1011c000800178000701780086007800050078002b
:1011d000a801070000027800044278000002fd0028
:1011e00079eab7000002fd00fd0037001e0278001a
:1011f000e20f52007c003a0004a92000144278005b
:10120000e14f52003c003a0074a7200014427800dd
:101210008480fb0074a52000144278000480fb0049
:1012200084a52000144278008483fb000548280030
:101230001e02780004024200048242001403780077
:101240001e02e90005482800040242000482420010
:10125000940278000102780080017800070178008c
:1012600086007800050078008201070000027800ff
:10127000044278000400780078eab70074a72000e0
:10128000144278008480fb00f4a52000144278000a
:101290000480fb0004a62000144278008483fb0035
:1012a000054828001e027800040242000482420021
:1012b000140378001e02e9000548280004024200d9
:1012c00004824200940278000102780080017800d4
:1012d00007017800860078000500780065010700a6
:1012e00000027800044278000002fd0079eab700ad
:1012f0000002fd00ba00370074a7200014427800f5
:101300008480fb00b4a52000144278000480fb0018
:10131000c4a52000144278008483fb0005482800ff
:101320001e02780004024200048242001403780086
:101330001e02e9000548280004024200048242001f
:10134000940278000102780080017800070178009b
:10135000860078000500780046010700000278004a
:10136000044278000400780078eab70074a72000ef
:10137000144278008480fb0034a6200014427800d8
:101380000480fb0044a62000144278008483fb0004
:10139000054828001e027800040242000482420030
:1013a000140378001e02e9000548280004024200e8
:1013b00004824200940278000102780080017800e3
:1013c00007017800860078000500780029010700f1
:1013d00000027800044278000002fd0079eab700bc
:1013e0000002fd007e0037001e027800e30f52006d
:1013f0007b003a0004a9200014427800e14f52001b
:101400003c003a0074a72000144278008480fb005e
:1014100064a52000144278000480fb0074a520001d
:10142000144278008483fb00054828001e027800df
:101430000402420004824200140378001e02e90004
:101440000548280004024200048242009402780009
:10145000010278008001780007017800860078009a
:1014600005007800030107000002780004427800bc
:101470000400780078eab70074a7200014427800ce
:101480008480fb00e4a52000144278000480fb0067
:10149000f4a52000144278008483fb00054828004e
:1014a0001e02780004024200048242001403780005
:1014b0001e02e9000548280004024200048242009e
:1014c000940278000102780080017800070178001a
:1014d0008600780005007800e6000700000278002a
:1014e000044278000002fd0079eab7000002fd0026
:1014f0003b00370074a72000144278008480fb0072
:10150000a4a52000144278000480fb00b4a52000ac
:10151000144278008483fb00054828001e027800ee
:101520000402420004824200140378001e02e90013
:101530000548280004024200048242009402780018
:1015400001027800800178000701780086007800a9
:1015500005007800c7000700000278000442780008
:101560000400780078eab70074a7200014427800dd
:101570008480fb0024a62000144278000480fb0035
:1015800034a62000144278008483fb00054828001c
:101590001e02780004024200048242001403780014
:1015a0001e02e900054828000402420004824200ad
:1015b0009402780001027800800178000701780029
:1015c0008600780005007800aa0007000002780075
:1015d000044278000002fd0079eab7000002fd0035
:1015e0000002eb00040f78008c0037001e02780028
:1015f000e00f520007003a0094a720001442780040
:101600000482fb000500200024079800350798009d
:10161000380037001e027800e10f520007003a0040
:1016200084a72000144278000482fb0005002000fb
:1016300024079800350798002e0037001e02780016
:10164000e20f52000d003a0084a7200014427800f7
:10165000694252000002fd007aeab7000002fd0074
:10166000a4a72000144278000482fb00050020009b
:1016700024079800350798001e0037001e027800e6
:10168000e30f520007003a0064a6200014427800dd
:101690000482fb000500200024079800350798000d
:1016a000140037001e027800e40f520004003a00d4
:1016b0006022b80024079800350798000d00370015
:1016c0001e027800e50f520007003a0084a62000b1
:1016d000144278000482fb000500200024079800d3
:1016e00035079800030037006022b80024079800ef
:1016f000350798000002eb00140798002c00370013
:10170000e8c2a900000000002e039000be03900074
:101710000408200005002000060078000703780078
:10172000840378000502780007006000040263006b
:1017300005002000c022dd00040020000403be00dc
:101740006102b800040373008583730046079800a4
:10175000570798002e029000be029000040242003b
:1017600085824a0024079800350798004e039000b0
:10177000de0390000408200005002000840f5300c1
:10178000858f5b0003003a00e902a800000000001a
:1017900002003700e902a90000000000e8c2a8002a
:1017a000000000001e0290000402e80014079800e8
:1017b0001e029000e70f5200d1ff36001e02780093
:1017c000e10f520005003a00d762a90000000000b6
:1017d000d762a800000000000f0037001e0278004a
:1017e000e30f520005003a00d782a9000000000074
:1017f000d782a80000000000070037001e02780012
:10180000e50f520004003a00d7a2a9000000000032
:10181000d7a2a800000000001e0fe8001e027800fa
:10182000e50f520071ff3600d6a2a90000000000ab
:10183000051780000404200004826200e00f5200bb
:1018400007003a00d6c2a800000000000042eb00ea
:101850000002fd006eeab7000002fd000300370041
:1018600014c0b300040078006eeab7000080fa00ec
:10187000000006001400fa00889fbe008a9fbe0088
:10188000500798006107980072079800030f9800ae
:10189000140f98007e029000040f7800ee02900072
:1018a0005e029000848f52004c0036000e0a9000b9
:1018b000050020000400be0059fb07000004be0024
:1018c0007e029000050020000400be0054fb0700cb
:1018d0000002be000401be000800be0095fa070029
:1018e0000002be000404be006e029000050020004d
:1018f0000400be004afb07000005be005e02900027
:10190000050020000400be0045fb07000002be00e9
:101910000401be000a00be0086fa07000002be00f5
:101920000401be000800be00e0fa07000002be008d
:1019300014079800250798001e0a90000500200053
:101940000400be0036fb07000004be005e029000eb
:10195000050020000400be0031fb07000002be00ad
:101960000401be000800be0072fa07000002be00bb
:1019700034079800450798001e019000ae019000c2
:101980003e009000ce0090007afb07000002be00ef
:1019900034079800450798007e029000050020005b
:1019a0000400be001efb07000002be000401be00d2
:1019b0003e009000ce0090005ffa07000002be00db
:1019c00034079800450798003e009000ce00900034
:1019d000f8fa07000002be00040f78001e0278002b
:1019e000040078004f05be004f04be000080fa00de
:1019f000000006000000fa0054a7200014427800fe
:101a0000e04f5200100032000042eb000002fd00e7
:101a100073eab7000002fd000042eb000002fd0087
:101a200072eab7000002fd000042eb000002fd0078
:101a300075eab7000002fd000042eb000002fd0065
:101a400074eab7000002fd000042eb000002fd0056
:101a500072eab7000002fd00a51680000400240011
:101a600004826200e00f520005003a0014c0b30087
:101a70000002fd006feab7000002fd00040037001d
:101a80000042eb000002fd006feab7000002fd001b
:101a90003417800068026200e00f52000800320034
:101aa0003417800064026200e00f520004003a0024
:101ab00014c0b3000002fd006feab7000002fd0091
:101ac000051780000408200004826200e00f520025
:101ad000050032000042eb000002fd0070eab70092
:101ae0000002fd000400370014c0b3000002fd0036
:101af00070eab7000002fd00051780000410200006
:101b000004826200e00f5200050032000042eb0048
:101b10000002fd0071eab7000002fd00040037007a
:101b200014c0b3000002fd0071eab7000002fd001e
:101b300054a9200014427800e34f520005003e00f3
:101b400054a92000144278000002fd0094eab70076
:101b50000002fd00249c2000140278006102620053
:101b600004427800e04f5200050032000042eb00d2
:101b70000002fd0091eab7000002fd0004003700fa
:101b800014c0b3000002fd0091eab7000002fd009e
:101b90003417800064026200e00f52000b00320034
:101ba00014a9200014427800e04f520007003200d0
:101bb00044a9200014427800644262000002fd0043
:101bc00094eab7000002fd00040037000042eb0079
:101bd0000002fd0094eab7000002fd0044a92000c5
:101be000144278000482fb0064026200e00f52009d
:101bf0000b00320024a9200014427800e04f52006c
:101c00000700320044a920001442780068426200b4
:101c10000002fd0094eab7000002fd000400370056
:101c20000042eb000002fd0094eab7000002fd0054
:101c300054548000ef0f520008003a0034a92000ed
:101c400014427800e14f520004003a0024c0b3006f
:101c50000002fd0093eab7000002fd0044a7200047
:101c600014427800e04f52000c003a0024a72000f4
:101c700014427800e04f520008003a00e4a6200029
:101c800014427800e04f520004003a00f4a620000d
:101c900014427800e04f5200080032000042eb008e
:101ca0000002fd0094eab7000002fd0054c0b3003a
:101cb0000002fd0093eab7000002fd0014a7200017
:101cc00014427800e04f52000800320024c0b300f4
:101cd0000002fd0094eab7000002fd0054c0b3000a
:101ce0000002fd0093eab7000002fd0004a72000f7
:101cf00014427800e04f520004003a0034a720005c
:101d000014427800e04f5200080032000042eb001d
:101d10000002fd0094eab7000002fd0054c0b300c9
:101d20000002fd0093eab7000002fd0054a9200064
:101d3000144278000002fd0094eab7000002fd00a2
:101d400044a92000144278000482fb00640262006f
:101d5000e00f520002003200d502a8000100370057
:101d6000d502a90044a92000144278000482fb0097
:101d700068026200e00f520002003200cfa2a80009
:101d800001003700cfa2a90044a920001442780026
:101d90000482fb0064026200e00f52000300320084
:101da000e9a2a900c882a80002003700e9a2a800a1
:101db000c882a90044a92000144278000482fb00d4
:101dc00068026200e00f520002003200e9e2a9005e
:101dd00001003700e9e2a80044a92000144278007d
:101de0000482fb0070026200e00f52000700320024
:101df000d022a900d402a80054c0b3000002fd0004
:101e000093eab7000002fd0002003700d022a800cc
:101e1000d402a90044a92000144278000482fb00e7
:101e200070026200e00f5200040032001100200036
:101e3000609820005e0107000300370011002000b9
:101e4000609820006701070044a720001442780032
:101e5000e04f520004003200210020006098200072
:101e60005301070003003700210020006098200084
:101e70005c01070054548000ef0f52000400320050
:101e8000410020006098200049010700030037004e
:101e900041002000609820005201070034178000a4
:101ea00064026200e00f52000400320001102000c2
:101eb000609820004b01070003003700011020004c
:101ec000609820003a010700341780006802620021
:101ed000e00f520004003200012020006098200032
:101ee0004001070003003700012020006098200017
:101ef0002f01070014a7200014427800e04f520081
:101f000004003200014020006098200028010700f2
:101f100003003700014020006098200031010700d5
:101f200004a7200014427800e04f52000400320061
:101f300001802000609820001d0107000300370089
:101f400001802000609820002601070044a720009f
:101f500014427800e04f52000400320001002100da
:101f600060982000120107000300370001002100e3
:101f7000609820001b010700441680006802620080
:101f8000e00f52000400320001002200609820009f
:101f900007010700030037000100220060982000bd
:101fa000100107004416800064026200e00f520036
:101fb000040032000100240060982000fc000700ab
:101fc000030037000100240060982000050107008d
:101fd00024a7200014427800e04f52000400320091
:101fe0000100280060982000f1000700030037007e
:101ff0000100280060982000fa00070034a72000a4
:1020000014427800e04f520004003200110020001a
:1020100080982000e6000700030037001100200030
:1020200080982000ef000700f4a6200014427800fa
:10203000e04f520004003200210020008098200070
:10204000db000700030037002100200080982000fb
:10205000e4000700e4a6200014427800e04f52009c
:10206000040032004100200080982000d0000700ca
:10207000030037004100200080982000d9000700ad
:102080000082eb00544c8800c4a820001442780061
:102090000482fb00644c88000080fa000000060007
:1020a000801f7800849fbe000000fa001454800056
:1020b0000402e8001454880014548000e90f520010
:1020c0000900360004548000044278000002fd003c
:1020d0008ceab7000002fd000002eb000454880007
:1020e0000002eb0014548800245480000402e8002d
:1020f0002454880024548000e10f52000c00360064
:1021000044548000e00f5200090032000002eb004e
:10211000245488000002eb00445488000042eb0085
:102120000002fd0073eab7000002fd000c0037005a
:1021300024548000e10f520009003600445480000e
:10214000e00f520006003a000002eb002454880021
:1021500014c0b3000002fd0073eab7000002fd00e6
:10216000345480000402e800345488003454800061
:10217000e40f52000a0036000002eb0034548800dd
:10218000451780000400210004826200e00f520025
:1021900002003a00e982a80001003700e982a900a4
:1021a0000002eb00a408880086a0a9000080fa00c5
:1021b0004f02be004f00780000400600801f7800ec
:1021c000841f78000000fa0014c0b30004007800f7
:1021d0008deab7000002eb00c408880086c0a900a1
:1021e0000080fa004f0278004f007800004006009f
:1021f0000000fa0000000000000000000080fa006b
:10220000004006000000fa0030000700d50107007a
:10221000bd0007001c000700044e8000d44a88005f
:10222000d54a8000d44d800004824200d44a880000
:10223000d54a8000e44d800004824200d44a8800e0
:10224000d54a8000f44d800004824200d44a8800c0
:10225000d54a8000b44d800004824200d44a8800f0
:10226000d54a8000a44d800004824200d44a8800f0
:10227000d54a8000944d800004824200d44a8800f0
:102280000080fa00000006000000fa00250480002b
:102290000408200004826200e00f520009003200ae
:1022a00084e0a900044e80000402e800044e880087
:1022b000044e8000d4548800110020008098200033
:1022c0003b0007000080fa00000006000a00fa0048
:1022d0002c0037008e00780000802000e607070001
:1022e0009e0278008407200004826200f80f5200ea
:1022f00004003200b44d80000402e800b44d8800b0
:10230000200037009e02780084492100848f52000b
:1023100003003a000e007800a600070019003700fd
:102320009e02780084592100848f520003003a00f5
:102330000e0078003f000700120037009e02780070
:1023400084612100848f520003003a000e0078005f
:10235000e40007000b0037009e027800c4c721008c
:102360008482620084012100848f520005003a00bb
:102370000e0078002f000700944d80000402e80052
:10238000944d8800008020006d070700000278004f
:10239000e00f5200cfff3a0074458000d44d880012
:1023a00034408000e44d88000080fa000000060000
:1023b0000400fa00000f7800110798001e02780050
:1023c000940278001e029000040378000503730055
:1023d000860278001e027800050a78000080fa0064
:1023e000000006000400fa00000f780011079800b2
:1023f0001e027800940278001e0290000482ea0017
:10240000848262001e027800050a78000080fa00cb
:10241000000006000400fa00000f78001107980081
:102420001e0290001e026200040078000080fa0084
:10243000000006000400fa00100798001e02900039
:10244000c4029000050f780004002f009e02620075
:1024500004002300848f520004003200a44d800049
:102460000402e800a44d880025003700f4ff200096
:102470009e026200f40f2000848f520004003e0090
:10248000a44d80000402e800a44d88001c00370021
:10249000f4ff20009e026200f42f2000848f52007f
:1024a00003003e001e009000dd020700140037000c
:1024b000f4ff20009e026200f43f2000848f52004f
:1024c00004003e00a44d80000402e800a44d8800f2
:1024d0000b003700f4ff20009e026200f44f200042
:1024e000848f520003003e001e009000b2000700df
:1024f00003003700a44d80000402e800a44d8800ca
:102500000080fa00000006000200fa00344c80004f
:10251000630f62000a0007001e027800e00f5200fd
:1025200005003a00344c800063026200e00f520064
:1025300001003200a80007000080fa000000060039
:102540000000fa00454c8000844c80000482620048
:10255000e00f520004003200344c80000400a00060
:10256000344c880004003700354c8000e4ff2f0015
:1025700004826200344c8800354c8000744c80002a
:1025800004826200e00f520004003200344c8000ec
:102590000410a000344c880004003700354c800043
:1025a000d4ff2f0004826200344c88000080fa00bf
:1025b000000006000400fa00100798001e029000b8
:1025c000c4029000050f780004002f009e026200f4
:1025d00004002300848f520004003200a44d8000c8
:1025e0000402e800a44d880013003700f4ff200027
:1025f0009e026200f4072000848f520003003e0018
:102600001e0090000e0007000b003700f4ff2000b2
:102610009e026200f40f2000848f520003003e00ef
:102620001e009000a103070003003700a44d8000a6
:102630000402e800a44d88000080fa0000000600b3
:102640000400fa00100798001e029000c4029000d7
:10265000050f7800f4ff20001e0f62001e027800b4
:10266000050020005600200007002000860f5200c1
:10267000878f5a0013003e000460010005003700f8
:10268000060037000f003700130037000500370041
:1026900008003700bc030700100037000000fe00f0
:1026a0000e00370001012000609820004dff070058
:1026b0000a00370001012000609820003cff07005d
:1026c00006003700a44d80000402e800a44d8800f5
:1026d0000000000001003700000000000080fa0048
:1026e000000006000400fa00100798001e02900087
:1026f000c4029000050f780004002f009e026200c3
:1027000004002300848f520004003200a44d800096
:102710000402e800a44d880025003700f4ff2000e3
:102720009e026200f40f2000848f520004003e00dd
:10273000a44d80000402e800a44d88001c0037006e
:10274000f4ff20009e026200f42f2000848f5200cc
:1027500003003e001e0090007503070014003700c0
:10276000f4ff20009e026200f43f2000848f52009c
:1027700004003e00a44d80000402e800a44d88003f
:102780000b003700f4ff20009e026200f44f20008f
:10279000848f520003003e001e0090000a000700d4
:1027a00003003700a44d80000402e800a44d880017
:1027b0000080fa00000006000200fa00000f780016
:1027c0000080fa00000006000200fa00000f780006
:1027d0000080fa00000006000a00fa00c4812a0006
:1027e000040f780056ff0700344c8000140798004f
:1027f000444c800024079800544c80003407980013
:10280000644c800044079800e13520000e007800f9
:10281000c8060700344d80000402e800344d8800eb
:102820000080fa00000006000200fa00000f7800a5
:102830001e02780094029000249c2000050a780073
:102840001e027800a4029000249c2000150298002b
:102850001e027800b4029000249c200025029800fb
:102860001e027800c4029000249c200035029800cb
:102870000060fe000002eb00540888000080fa00af
:10288000000006001400fa00500798006107980045
:1028900072079800030f9800140f98005e029000d2
:1028a0006f02620054079800de02900004032000cb
:1028b00005027200540798005e0290000402420074
:1028c00054079800de0290000460200005027200a8
:1028d000540798005e0290004222dd0054079800e1
:1028e0005e029000040f78009e02780004f02f0032
:1028f00004826200040f78001e0278004322dd008b
:10290000040f78009e0278005e039000f40f200010
:102910000402630005027200040f78001e0a900092
:10292000140798000e0a9000240798007e02900079
:10293000340798006e029000440798008e007800db
:10294000808a200034060700741b80006802620041
:10295000e00f520001003a008760a8000080fa00f2
:10296000000006000000fa00250480000404200096
:1029700004826200e00f52009f00320084c0a90070
:10298000544e80000402e800544e8800544e8000eb
:102990006f026200544e88008fff0700544e800083
:1029a00005002000f600200007002000860f5200de
:1029b000878f5a0090003e00046001000f0037002e
:1029c0001800370020003700290037003200370098
:1029d0003b003700440037004d00370056003700f9
:1029e0005f00370068003700710037007a00370059
:1029f0007b0037007c0037007d003700e44a800010
:102a0000d74a8000c64a8000b54a80008701780016
:102a100006017800850078000000eb0099ff0700b0
:102a200075003700064b8000f54a80000002eb007d
:102a30008001eb000601780085007800100020007e
:102a400090ff07006c003700644b8000574b8000fc
:102a5000464b8000354b80008701780006017800e6
:102a6000850078002000200086ff07006200370004
:102a7000a44b8000974b8000864b8000754b8000f4
:102a8000870178000601780085007800300020007a
:102a90007cff070058003700e44b8000d74b8000d4
:102aa000c64b8000b54b8000870178000601780096
:102ab000850078004000200072ff07004e003700bc
:102ac000244c8000174c8000064c8000f54b8000a1
:102ad000870178000601780085007800500020000a
:102ae00068ff070044003700444d8000374d8000e8
:102af000264d8000154d8000870178000601780082
:102b000085007800800020005eff07003a00370053
:102b1000844d8000774d8000664d8000554d8000cb
:102b20008701780006017800850078009000200079
:102b300054ff070030003700c44d8000b74d8000bf
:102b4000a64d8000954d8000870178000601780031
:102b500085007800a00020004aff0700260037000b
:102b6000044e8000f74d8000e64d8000d54d80007a
:102b7000870178000601780085007800b000200009
:102b800040ff07001c003700c44c8000b74c800099
:102b9000a64c8000954c80008701780006017800e3
:102ba000850078006000200036ff07001200370023
:102bb000044d8000f74c8000e64c8000d54c80002e
:102bc00087017800060178008500780070002000f9
:102bd0002cff0700080037007302070006003700cb
:102be0008d02070004003700b8020700020037001a
:102bf000e3020700000000000080fa000000060069
:102c00000e00fa0050079800610798000002eb00e0
:102c1000040f78006e029000240798005e02900076
:102c200014079800e13420000e007800c105070069
:102c3000444d80000402e800444d88000080fa0002
:102c4000000006001000fa00500798006107980085
:102c500072079800c4012a00040f78007e029000d9
:102c6000140798005e029000240798006e029000fe
:102c7000e10f520003003a0004102e0044079800b0
:102c80000200370014102e0044079800e1342000a1
:102c90000e007800a7050700444d80000402e800fc
:102ca000444d88000080fa00000006000000fa0091
:102cb000043a800061026200e00f520004003a0012
:102cc000043a800062026200e00f52000500320008
:102cd0000002eb00c45488000002eb00d4548800ca
:102ce00003003700c45480000402e800c454880084
:102cf0004007a9004027a90040c7a90040e7a90054
:102d000041e7a9004087a90041c7a900c454800039
:102d1000f44a8800d4548000044e88008f60a900d3
:102d20008760a9000405800004c0a10004d0a100b0
:102d300004e0a000040588000002eb00b41c880039
:102d40009803a8009823a8009843a80098a3a80077
:102d50000080200081050700808a20007f05070091
:102d600004402000841c880000000000851c8000b6
:102d7000040e20008482620004082000848f520028
:102d8000faff3a0014002000941c88001439200037
:102d9000a41c88001480210084198800d487210095
:102da000c41988000002eb00041888000480200089
:102db000441888008401210084188800c47f210001
:102dc000c4188800c47f210004198800c47f210032
:102dd0004419880014002000741b8800240020007f
:102de000f41a880034002000741a8800040c2000b3
:102df000241b8800040c2000a41a8800040c200066
:102e0000241a88000002eb00741c88000002eb000a
:102e1000f41b88000002eb00841c88000000000006
:102e2000851c8000040e200004826200e00f520026
:102e3000fbff3a008f60a80054fb2500840888003f
:102e400024f42000640888000002eb0034088800a5
:102e500084c0a9008cc0a90011e1a800d4fb250002
:102e600094088800546222007408880084e0a90055
:102e70008ce0a90013e1a8000002eb00944c88004c
:102e800074e82800a44c88000002eb00b44c8800d1
:102e900014042000c44c880044062000d44c880050
:102ea0000080fa00000006003600f800809fbe0097
:102eb000829fbe00849fbe00869fbe000a00fa006b
:102ec0008760a900844d80000402e800844d8800da
:102ed000751c80000408200004826200e00f52008c
:102ee00018003200741c800061026200e00f520082
:102ef0000b003a00544d80000402e800544d880055
:102f0000e13820000e007800af0407003e02900078
:102f1000844a88004e029000944a880008003700d6
:102f2000644d80000402e800644d8800e138200010
:102f30000e007800a40407000e0078003afe070097
:102f40009603a900f51b800004082000048262009b
:102f5000e00f520007003200744d80000402e800c8
:102f6000744d8800e13720000080200079040700bc
:102f70009623a900741b800068026200e00f5200d3
:102f80000c003a00808a20006d04070000027800df
:102f9000e00f520007003200e1362000808a200056
:102fa000ce0407009643a900c44d80000402e80047
:102fb000c44d8800b51c8000040220000482620019
:102fc000e00f520005003200244d80000402e800aa
:102fd000244d880096a3a9000800370045178000fb
:102fe0000400240004826200e00f5200020032005c
:102ff000e9c2a90001003700e9c2a800d41c800082
:10300000144d88000080fa004f03be004f02be003e
:103010004f01be004f00be003600f9000040060020
:103020000600fa00200798002e029000c4029000cb
:10303000050f78001e0278006123b80004f02c0010
:10304000f5ff2f000602420087824a000601200099
:1030500007002000860f5200878f5a000d013e00a6
:1030600004600100100037004c0037008800370072
:10307000c40037000701370006013700050137009b
:103080000401370003013700020137000101370056
:1030900000013700ff003700fe003700fd00370059
:1030a000fc003700f40037002e029000440290002c
:1030b0004822de00140798001e02900004427800a7
:1030c0000002fd0056eab7000002fd002e0290004b
:1030d000c4029000f40f20000482620014079800dc
:1030e0001e029000044278000002fd0057eab7007b
:1030f0000002fd002e029000340290004822de0003
:10310000140798001e029000044278000002fd009f
:1031100058eab7000002fd002e029000b4029000b1
:10312000f40f200004826200140798001e02900031
:10313000044278000002fd0059eab7000002fd00d9
:103140002e029000240290004822de00140798000e
:103150001e029000044278000002fd0066eab700fb
:103160000002fd002e029000a4029000f40f200047
:1031700004826200140798001e0290000442780046
:103180000002fd006aeab7000002fd00545480000e
:103190000400a00054548800c20037002e029000a2
:1031a000440290004822de00140798001e0290009e
:1031b000044278000002fd005eeab7000002fd0054
:1031c0002e029000c4029000f40f200004826200de
:1031d000140798001e029000044278000002fd00cf
:1031e0005feab7000002fd002e029000340290005a
:1031f0004822de00140798001e0290000442780066
:103200000002fd0060eab7000002fd002e029000ff
:10321000b4029000f40f20000482620014079800aa
:103220001e029000044278000002fd0061eab7002f
:103230000002fd002e029000240290004822de00d1
:10324000140798001e029000044278000002fd005e
:1032500068eab7000002fd002e029000a402900070
:10326000f40f200004826200140798001e029000f0
:10327000044278000002fd006ceab7000002fd0085
:10328000545480000410a000545488008500370076
:103290002e029000440290004822de00140798009d
:1032a0001e029000044278000002fd005aeab700b6
:1032b0000002fd002e029000c4029000f40f2000d6
:1032c00004826200140798001e02900004427800f5
:1032d0000002fd005beab7000002fd002e02900034
:1032e000340290004822de00140798001e0290006d
:1032f000044278000002fd005ceab7000002fd0015
:103300002e029000b4029000f40f200004826200ac
:10331000140798001e029000044278000002fd008d
:103320005deab7000002fd002e029000240290002a
:103330004822de00140798001e0290000442780024
:103340000002fd0067eab7000002fd002e029000b7
:10335000a4029000f40f2000048262001407980079
:103360001e029000044278000002fd006beab700e4
:103370000002fd00545480000420a0005454880032
:10338000480037002e029000440290004822de00e0
:10339000140798001e029000044278000002fd000d
:1033a00062eab7000002fd002e029000c402900005
:1033b000f40f200004826200140798001e0290009f
:1033c000044278000002fd0063eab7000002fd003d
:1033d0002e029000340290004822de00140798006c
:1033e0001e029000044278000002fd0064eab7006b
:1033f0000002fd002e029000b4029000f40f2000a5
:1034000004826200140798001e02900004427800b3
:103410000002fd0065eab7000002fd002e029000e8
:10342000240290004822de00140798001e0290003b
:10343000044278000002fd0069eab7000002fd00c6
:103440002e029000a4029000f40f2000048262007b
:10345000140798001e029000044278000002fd004c
:103460006deab7000002fd00545480000430a00053
:10347000545488000b0037002e0290001402900074
:10348000044278000002fd0095eab7000002fd004a
:1034900004003700a44d80000402e800a44d880019
:1034a000000000000080fa00000006000400fa009e
:1034b000100798001e029000c4029000050f7800cb
:1034c0001e02780005082300850f52000400320018
:1034d00015082300850f5200080032000e00370047
:1034e00014c0b3000002fd0092eab7000002fd0024
:1034f00014002000445488000b0037000042eb0009
:103500000002fd0092eab7000002fd001400200056
:103510004454880004003700a44d80000402e800f1
:10352000a44d8800000000000080fa0000000600a2
:103530000400fa00100798001e029000c4029000d8
:10354000050f7800f4ff20001e0f62009e02780035
:1035500004122300848f520005003a00e4a82000e2
:10356000144278000482fb00344c880004003700c9
:10357000a44d80000402e800a44d88000000000073
:103580000080fa00000006000000fa00140020008d
:10359000e454880014c0b3000400780075eab70052
:1035a0000080fa00000006000000fa0094a7200046
:1035b000144278000482fb00c822dd0084a72000aa
:1035c000144278000482fb000482620084037800c5
:1035d00064a72000144278000482fb00c822dd00aa
:1035e00074a72000144278000482fb000482620069
:1035f00004037800e55380000002eb0087017800a7
:103600000601780085007800c00320009dfc0700bb
:103610000080fa00000006000000fa00e4a5200087
:10362000144278000482fb00c822dd00f4a52000cb
:10363000144278000482fb000482620004007800d7
:1036400064a62000144278000482fb00c822dd003a
:10365000a4a62000144278000482fb0004826200c9
:103660008403780084a52000144278000482fb00c3
:10367000c822dd0094a52000144278000482fb00db
:10368000048262000403780064a5200014427800dc
:103690000482fb00c822dd0074a5200014427800db
:1036a0000482fb0004826200840278000002780039
:1036b000870178000601780085007800d00320009b
:1036c00070fc07000080fa00000006000000fa000d
:1036d000c4a52000144278000482fb00c822dd004b
:1036e000d4a52000144278000482fb00048262000a
:1036f00004007800a4a52000144278000482fb0096
:10370000c822dd00b4a52000144278000482fb002a
:10371000048262008403780084a6200014427800aa
:103720000482fb00c822dd00c4a6200014427800f9
:103730000482fb00048262000403780004a62000d7
:10374000144278000482fb00c822dd0014a6200089
:10375000144278000482fb00048262008402780034
:103760000002780087017800060178008500780063
:10377000e003200043fc07000080fa000000060080
:103780000000fa0094a62000144278000482fb0096
:10379000c822dd00d4a62000144278000482fb0079
:1037a000048262000400780044a6200014427800dd
:1037b0000482fb00c822dd0054a6200014427800d9
:1037c0000482fb00048262008403780024a62000a7
:1037d000144278000482fb00c822dd0034a62000d9
:1037e000144278000482fb00048262000403780023
:1037f00074a62000144278000482fb00c822dd0079
:10380000b4a62000144278000482fb000482620007
:1038100084027800000278008701780006017800b1
:1038200085007800e003200016fc07000080fa0005
:10383000000006000000fa000a0007000060fe0019
:103840005c0007000060fe005a0007000060fe00f8
:103850005c01070071010700840107000080fa0085
:10386000000006000000fa00dec2a800d682a9000f
:10387000d6a2a900d6c2a900d282a900d2a2a900cc
:10388000d2c2a900c1e2a800c1c2a800dec2a8003d
:10389000d042a900cc42a900d062a900cc62a90004
:1038a000cc82a800de62a800d3e2a900d7e2a8007b
:1038b000de42a900dee2a800df02a800d3c2a80011
:1038c000e442a800e662a900e462a800c662a8007b
:1038d000c642a800d1c2a800cdc2a900d2e2a90068
:1038e000d6e2a800d622a900d222a900d642a8007a
:1038f000d242a900d662a800d262a900c182a80063
:10390000c1a2a800d302a900d502a900cda2a90096
:10391000cfa2a900d322a900d522a900c6a2a9003e
:10392000c8a2a900c682a900c882a900d202a90023
:10393000d402a900d342a900e5a2a900e9a2a800e7
:10394000e582a900e982a800e5c2a900e5e2a90094
:10395000e9e2a800cc22a900d022a800e8c2a90070
:10396000e4c2a900e902a900e502a900e4e2a80076
:10397000d382a900d782a900d3a2a900d7a2a90007
:10398000d362a900d762a900c0e2a800c0c2a90002
:10399000c2c2a800e402a900e602a800e422a9002d
:1039a000e622a900de82a800dea2a9000080fa00bb
:1039b000000006000400fa000082eb0014079800e3
:1039c000e9c2a800e982a800e9a2a800e9e2a800eb
:1039d000d022a800010037001e0fe8001e02900050
:1039e0009e027800848f5200fbff3a00e9c2a900d2
:1039f000e982a800e9a2a800e9e2a800d022a80074
:103a00000002eb00040f7800010037001e0fe800f1
:103a10001e0290009e027800848f5200fbff3a0045
:103a2000e9c2a800e982a900e9a2a800e9e2a80089
:103a3000d022a8000002eb00040f7800010037003c
:103a40001e0fe8001e0290009e027800848f520034
:103a5000fbff3a00e9c2a800e982a800e9a2a90098
:103a6000e9e2a800d022a8000002eb00040f7800d1
:103a7000010037001e0fe8001e0290009e02780031
:103a8000848f5200fbff3a00e9c2a800e982a80037
:103a9000e9a2a800e9e2a900d022a8000002eb00f8
:103aa000040f7800010037001e0fe8001e0290008e
:103ab0009e027800848f5200fbff3a00e9c2a80002
:103ac000e982a800e9a2a800e9e2a800d022a900a2
:103ad0000002eb00040f7800010037001e0fe80021
:103ae0001e0290009e027800848f5200fbff3a0075
:103af000e9c2a800e982a800e9a2a800e9e2a900b9
:103b0000d022a8000002eb00040f7800010037006b
:103b10001e0fe8001e0290009e027800848f520063
:103b2000fbff3a00e9c2a800e982a800e9a2a900c7
:103b3000e9e2a800d022a8000002eb00040f780000
:103b4000010037001e0fe8001e0290009e02780060
:103b5000848f5200fbff3a00e9c2a800e982a90065
:103b6000e9a2a800e9e2a800d022a8000002eb0028
:103b7000040f7800010037001e0fe8001e029000bd
:103b80009e027800848f5200fbff3a00e9c2a90030
:103b9000e982a800e9a2a800e9e2a800d022a800d2
:103ba0000002eb00040f7800010037001e0fe80050
:103bb0001e0290009e027800848f5200fbff3a00a4
:103bc000e9c2a800e982a800e9a2a800e9e2a800e9
:103bd000d022a8000002eb00040f7800010037009b
:103be0001e0fe8001e0290009e027800848f520093
:103bf000fbff3a00e9c2a900e982a900e9a2a900f5
:103c0000e9e2a900d022a9000002eb00040f78002d
:103c1000010037001e0fe8001e0290009e0278008f
:103c2000848f5200fbff3a00e9c2a800e982a80095
:103c3000e9a2a800e9e2a800d022a8000002eb0057
:103c4000040f7800010037001e0fe8001e029000ec
:103c50009e027800848f5200fbff3a00e9c2a9005f
:103c6000e982a900e9a2a900e9e2a900d022a900fd
:103c70000002eb00040f7800010037001e0fe8007f
:103c80001e0290009e027800848f5200fbff3a00d3
:103c9000e9c2a800e982a800e9a2a800e9e2a80018
:103ca000d022a8000002eb00040f780001003700ca
:103cb0001e0fe8001e0290009e027800848f5200c2
:103cc000fbff3a00e9c2a900e982a900e9a2a90024
:103cd000e9e2a900d022a9000002eb00040f78005d
:103ce000010037001e0fe8001e0290009e027800bf
:103cf000848f5200fbff3a00e9c2a800e982a800c5
:103d0000e9a2a800e9e2a800d022a8000002eb0086
:103d1000040f7800010037001e0fe8001e0290001b
:103d20009e027800848f5200fbff3a00e9c2a9008e
:103d3000e982a800e9a2a800e9e2a800d022a80030
:103d40000080fa00000006000000fa00209d20001c
:103d50008701070040a1200085010700f400200032
:103d6000f41088000002eb00b41088000042eb0061
:103d700004007800d0e9b7008720a9008700a900d7
:103d80008f20a800040580000440a0000450a1007a
:103d90000460a100040588008f00a80004058000cd
:103da0000400a0000410a1000420a1000405880064
:103db00017e2a80004402000c41088000080fa0028
:103dc000000006000000fa008880a9009080a8008a
:103dd0008260a800340580000400a0000410a00048
:103de0000420a000340588000080fa0000000600ce
:103df0000000fa0088a0a90090a0a8008280a90075
:103e0000340580000440a0000450a0000460a0001d
:103e1000340588000080fa00000006000000fa0067
:103e2000f40880000440a1000450a000f4088800b9
:103e30001e21a90094d02300d40888000002eb00c2
:103e4000a408880086a0a9008ea0a800f404800021
:103e50000440a0000450a1000460a000f404880005
:103e60001fe1a8000080fa00000006000000fa0030
:103e7000040980000440a0000450a1000409880047
:103e80002021a90084bb2000e40888000002eb0088
:103e9000c408880086c0a9008ec0a800f404800071
:103ea0000480a1000490a00004a0a000f4048800f5
:103eb00021e1a8000080fa00000006000600fa00d8
:103ec000d062a900d042a90010002000010020000b
:103ed0008d010700d042a800100020000100200042
:103ee00089010700741680004422de0061426200ee
:103ef0000482fb00040f78000042eb002447980086
:103f000010003700d062a8001e02780004024200b0
:103f1000040f7800741680004422de0061426200c3
:103f20000482fb001e0f7200d062a9001000200066
:103f300001002000740107002e4290000442e800b6
:103f4000244798002e429000e74f5200edff3600c4
:103f50001e027800044278006142620034479800f3
:103f60001e027800044278007042620044479800c4
:103f70004e4290000482fb004422de00844278001e
:103f80003e42900084cf52000200320000c2eb009b
:103f9000620037001e02780004427800624262002c
:103fa000344798001e027800044278000442b200b0
:103fb000444798004e4290000482fb004422de00f9
:103fc000844278003e42900084cf520002003200ca
:103fd00000c2eb00510037001e0278000442780056
:103fe00064426200344798001e0278000442780060
:103ff0000444b200444798004e4290000482fb0003
:104000004422de00844278003e42900084cf520079
:104010000200320000c2eb00400037001e027800b0
:104020000442780068426200344798001e0278001b
:104030008442780004c8b30004c262004447980078
:104040004e4290000482fb004422de00844278004d
:104050003e42900084cf52000200320000c2eb00ca
:104060002e0037001e027800044278006842620089
:10407000344798001e0278000442780067426200cc
:1040800044479800be4290004e42900084cf5200b8
:104090000200320000c2eb0020003700940920002b
:1040a0009e027800848f520002003a0024c0b300c0
:1040b0001a003700a40a20009e027800848f520064
:1040c00002003a0044c0b30014003700c40c2000c2
:1040d0009e027800848f520002003a0084c0b30030
:1040e0000e003700740720009e027800848f520073
:1040f00002003a0004c1b30008003700f40f2000aa
:104100009e027800848f520003003a001e0278005d
:1041100004427800010037000042eb0004407800c0
:104120000080fa0000000600100190009000780066
:10413000010051000000e900f000b200000006009c
:10414000100190009000780002805000f000b20052
:10415000000006001170a6001a003700e4014000bc
:104160009309e800900190001001e800f200b2000d
:104170000310e10010003200100178006a11b8004d
:10418000e8014000828141006e8150009219780060
:1041900066014100b2197800b2197800b2197800ae
:1041a000b21978001001e800f200b20002087800ad
:1041b000e60140009309e900e60140009309e800a8
:1041c0001170a100000006001170a6000900370060
:1041d0006e81500012187800660141003218780094
:1041e0003218780032187800321878001170a10067
:1041f00008003700827f21000218780002002000aa
:104200000218780002187800021878000218780066
:104210003100370000000600e40140009309e80087
:10422000900190001001e800f200b2000310e100dc
:104230000e003200100178006a11b800e801400059
:1042400082814100b1197800b1197800b119780064
:10425000b1197800b11978001001e800f200b2003d
:1042600002087800e60140009309e900e6014000f9
:104270009309e8000000060010019000900178000a
:104280000310e10008003a00837f210083187800c2
:1042900003002000831878008318780083187800c2
:1042a000831878000c0037006a11b80068014100db
:1042b00000014100b2187800b2187800b2187800f6
:1042c000b2187800b2187800100190000201e800de
:1042d000f200b20012009800000006001130a700a2
:1042e0001300370010019000900178000310e100e6
:1042f0000f0032006a11b80068014100000141005e
:10430000ee815000b2097800e6814100b2197800d0
:10431000b2197800b2197800b21978001130a000f3
:10432000100190000201e800f200b20012009800b3
:10433000000006001130a1006e81500030097800a5
:104340006601410030197800301978003019780082
:10435000301978001130a000000006000018eb00b2
:104360000018eb000018eb000008eb00000006004e
:104370000200fa00000f78009e0278000042eb0075
:1043800084c298009e0278000042eb0094c298001c
:104390000080fa00000006000400fa00000f780018
:1043a000214798001e02780004c290000482fb009e
:1043b0009e0278002e43900086727a001e027800da
:1043c00004c290000442e8009e02780084c2980073
:1043d0001e02780004c29000f443b2009e027800ee
:1043e00084c298001e02780084c290001e027800e9
:1043f00014c2900084cf52000a003a001e027800d6
:1044000014c290000442e8009e02780094c2980012
:104410001e02780014c29000f443b2009e0278009d
:1044200094c298000080fa00000006000400fa0020
:10443000100798001e02900094c290001547980043
:104440001e02900084c290001e42900084cf520051
:104450000e0032001e4290000482fb009e0290007b
:10446000654f7a001e4290000442e800144798000d
:104470001e429000f443b200144798001e029000c0
:104480009e42900015c29800020037000042eb00e7
:10449000044f78001e427800044078000080fa0043
:1044a000000006000200fa00000f78001e027800eb
:1044b00084c290001e02780014c2900004c2520010
:1044c000f443b200044078000080fa0000000600c7
:1044d0000200fa00000f78001e02780084c29000eb
:1044e0001e02780014c2900084cf520002003a00ed
:1044f0000042eb000100370014c0b3000440780014
:084500000080fa000000060033
:020000040000fa
:10450800f03fb1000180b10006003500ee0309005c
:1045180000000000403fb1000180b100fbff3d00fa
:104528001000b000203fb0000200350000800900f4
:08453800000000000000060075
:020000040000fa
:10454000cc090000cc0000000000000000080000c2
:10455000cc010000000000009c0a000002000000e6
:08456000000000000000000053
:020000040000fa
:0c4568000000fa00e8f00700feff37003a
:020000040000fa
:0200000401f009
:04000000ebbb000056
:020000040000fa
:0200000401f009
:04000400f1ff000008
:020000040000fa
:0200000401f009
:04000800efff000006
:020000040000fa
:0200000401f009
:04000c00ffff0000f2
:020000040000fa
:0200000401f009
:04001000ffff0000ee
:020000040000fa
:0200000401f009
:04001400ffff0000ea
:020000040000fa
:0200000401f009
:04001800ffff0000e6
:00000001FF
