:020000040000fa
:080000000001040000000000f3
:020000040000fa
:10000800be140000be140000be140000be140000a0
:10001800be140000be140000be140000be14000090
:10002800be140000be140000be140000be14000080
:10003800be140000be140000be140000be14000070
:10004800be140000be140000be140000be14000060
:10005800be140000be140000be140000be14000050
:10006800be140000be140000be140000be14000040
:10007800be140000be140000be140000be14000030
:10008800be140000be140000be140000fa1e0000da
:10009800be140000be140000be140000be14000010
:1000a800be140000be140000be140000be14000000
:1000b8007c140000be1400002c1f0000be140000b9
:1000c800be140000be140000be140000be140000e0
:1000d800be140000be140000be140000be140000d0
:1000e800be140000be140000be140000be140000c0
:0800f800be140000be1400005c
:020000040000fa
:10010800be140000be140000be140000be1400009f
:10011800be140000be140000be140000be1400008f
:10012800be140000be140000be140000be1400007f
:10013800be140000be140000be140000be1400006f
:10014800be140000be140000be140000be1400005f
:10015800be140000be140000be140000be1400004f
:10016800be140000be140000be140000be1400003f
:10017800be140000be140000be140000be1400002f
:10018800be140000be140000be140000fa1e0000d9
:10019800be140000be140000be140000be1400000f
:1001a800be140000be140000be140000be140000ff
:1001b8007c140000be1400002c1f0000be140000b8
:1001c800be140000be140000be140000be140000df
:1001d800be140000be140000be140000be140000cf
:1001e800be140000be140000be140000be140000bf
:0801f800be140000be1400005b
:020000040000fa
:10020000efa520000e7f22000e01880000000000f4
:10021000000020000000e000020032000001200089
:10022000200288000c000700e0a622000100200048
:1002300011000700000020000000e0000200320072
:10024000000002000000000038050200000000006d
:100250000040da000000fe004440a90080042000b5
:100260000000e0000300320000002000a001880030
:100270004440a8000000060091018800800078003a
:100280000000eb0015003700e280400032a0b4000f
:100290009101ba00e280400032a0b4009102ba009d
:1002a000e280400032a0b4000002eb00472bde00e9
:1002b000f507b200602ce10004003a000059eb00a1
:1002c0008301e900fdff3e00040037006128e100e2
:1002d000010032000082eb00040007001101ba00a7
:1002e0000200e000e8ff3a00000006003159ba00c1
:1002f0008301e9000c0032002159ba008301e900b2
:10030000080032000400e00003003a00e2804000f0
:1003100032a0b400f5ff370011d9ba008301e9001b
:10032000faff3a008100e800e180400032a0b4000a
:10033000000006003200f800910188000008bb00b0
:10034000410424006210e100040032000002200099
:100350000010e1000a003a0051042400013b88002b
:100360000500fc0051052000313b8800a10a200057
:10037000313b880061e7a800000000000000000099
:100380003200f900000006003200f800600424008a
:10039000003b8800f2ff37003200f800910188002e
:1003a00041002400013b88000208bb00ecff37003d
:1003b0003200f8009101880051002400013b8800c0
:1003c000030120003218bb008301e900fdff3a0061
:1003d000e3ff370003f0a200889fbe008a9fbe00a3
:1003e0008c1f7800f3000700fa0033006450e1002e
:1003f0004f0032006420e1005200320003826c00a2
:1004000007003b000905d0000306d000820f54000e
:100410000c065d00020039000200320089017800fc
:10042000030678008582550004003d000003fd00ae
:100430008103fd008502ea008b854200840f720073
:1004400002003b0060001000e08018006011b8005e
:100450000005eb007a28e1000a0039000600780068
:10046000c75ddd00f707b200878075002d003700fb
:10047000828171000a017800610560008180d100ed
:100480000080d3008502e900f9ff3b00060440002c
:100490008784480002003b0060041400e0841c00d4
:1004a0000988a300070032008a81710082817100ef
:1004b000610164008904d1000884d3008b05e80041
:1004c000170037000978a30013003a000b00e00082
:1004d000130034008b05e9000804440089844c00b3
:1004e0000a4474000978a3000d003a000b00e000f4
:1004f000070034008b05e9000804440089844c009f
:1005000001003a000b0020000978a300f7ff320039
:100510000001eb0002003700828171000a017800bf
:10052000690007000cf0a70001f0a000b20037003e
:100530006420e10002003a00838f6c00b2003300b7
:100540000801be000200be00ab003700889fbe005d
:100550008a9fbe008c1f7800960007009d00330024
:1005600003866c006450e1002e0032006420e1003c
:10057000330032006150e1002f0032006120e100c1
:100580003100320085855500eb07b00009002000de
:1005900008042000050037000804440089844c004a
:1005a0000a0031000603430087834b00000153001b
:1005b00081815b00f8ff33000203be000800a00049
:1005c0000804440089844c00f6ff3900c639dd0078
:1005d0008301730001003200130020008904d10060
:1005e0000884d3000998a300050032000800a70082
:1005f0000300a0008904d1000884d3008b05e80023
:100600008904d1000884d3000001eb000281d200ec
:100610002d00070001f0a1000cf0a70001f0a000e0
:10062000750037006420e100770032000801be0049
:100630000200be00f7ff37006120e10072003200c7
:100640006000b800f3ff37000000200001f8270029
:10065000f0ff37000001be00410007000470a70052
:1006600003f0a10003f8a30013003a006509b100ec
:1006700010003200090035006928e1000200350051
:1006800001002800000005000000400081804800b3
:100690008502e900fcff3a0000000600f88f4200e6
:1006a000050035008100d1000080d3008502e800fc
:1006b000fcff3a00000006008000eb00000005008f
:1006c0006011b8009700370081002000618055005c
:1006d0000b003d000b00200061fe2f000100e10037
:1006e0001d00340082817100610164008904d10021
:1006f0000884d3000000e800faff3a0071002000ef
:100700006100640003007000020060000900320014
:1007100061044400e0844c000988a5000500320013
:100720008b05e8006808e10002003a008904d10066
:100730000884d300f20f20000258e10005003d00bc
:10074000c75ddd00f907b2008980750008007800f8
:10075000000006000bf827008b0078000000050061
:10076000c70ade00f107b200f50fb2000800320040
:10077000e1cf4200020032000170a0002400050019
:10078000810f7000010032000408050044000500dc
:10079000810f700002003a00140005008502e90094
:1007a0000000400081c04800fcff3b000170a00039
:1007b000240005000004be00e9ff07000003be009e
:1007c0000405be000200be00e5ff0700844f75006f
:1007d000000006000200be006450e1000500360083
:1007e0006420e100020036000968a30001003a001d
:1007f0000800be000160a0004f0678004f05be0053
:100800004f04be0000000600f0ff2f00f1ff27009c
:10081000f9ff3700889fbe008a9fbe008c1f7800ba
:10082000e4ff0700ebff330003866c006450e10037
:10083000240032006420e100270032006150e10012
:10084000220032006120e100210032008b8542004d
:10085000eb07b1000134b800003ab80008044200c8
:1008600089844a00013ab8000030b800888040000e
:1008700009014a0004003300000040008180480064
:10088000020149008b05e900c909dd008301700000
:100890000100320013002000c814de004814dd00ff
:1008a0004709de001200b200c808de0008847000ac
:1008b00085ff070001f0a1000cf0a70001f0a000e7
:1008c000cdff37006120e100cfff32000801be00fc
:1008d0000200be00f7ff37006150e100fcff3a0064
:1008e000c9ff37006022b800060220000000d000d7
:1008f0008180d2000482d2008582d2000000a00054
:100900000202520083825a000300310002024200b8
:1009100083824a000000a1000603e900f3ff3a00c9
:1009200000000600889fbe008a9fbe000082700003
:100930000402710004827100260032000004be002f
:100940000200be006011b8006b0920009502200073
:100950000182cf000a0039000541b1000082cf00ba
:10096000070039000541b1000982cf0004003900b9
:100970000541b1000882cf00010039000541b100f6
:1009800005425200120032000a003b0082817100d1
:10099000610164008100d1000080d3008984d3000c
:1009a0000884d3008b05e8000442e800f7ff3a0012
:1009b000070037000804440089844c000000480008
:1009c000818048008b05e9000442e900f9ff3a0004
:1009d0003dff07004f05be004f04be0000000600ab
:020000040000fa
:1009e0000000000000800000000000000080000007
:1009f00000000000008000000000000000800000f7
:100a000000000000008000000000000000800000e6
:100a100000000000008000000000000000800000d6
:100a200000000000000000000000000000000000c6
:100a300000000000000000000000000000000000b6
:100a400000000000000000000000000000000000a6
:100a50000000000000000000000000000000000096
:100a60000f0000005f000000af000000ff0000006a
:020000040000fa
:100a70000000fa00a4002000f451880001000700e3
:100a8000feff37000000fa00f45180006123b80037
:100a900064ff2f00f5ff2f000602420087824a0004
:100aa0002603200007002000860f5200878f5a007f
:100ab000b7003e000460010032003700b400370088
:100ac000b3003700b2003700b1003700b000370084
:100ad000af003700ae003700ad003700ac00370084
:100ae00030003700aa003700a9003700a8003700ff
:100af000a7003700a6003700a5003700a400370084
:100b0000a3003700a20037003a003700a0003700ea
:100b10009f0037009e0037009d0037009c00370083
:100b20009b0037009a003700990037009800370083
:100b300046003700960037009500370094003700d4
:100b40009300370092003700910037009000370083
:100b50008f0037008e0037005d0037008c003700b3
:100b60008b0037008a003700890037008800370083
:100b70008700370086003700850037008400370083
:100b8000720037008c0007000008a8000028a800a9
:100b9000d502a900cfa2a90044012000f451880089
:100ba000830037000008a8000028a800d502a9008b
:100bb000cfa2a9000b003700dd00070025020700c7
:100bc000d5518000b4122000848f520005003600f9
:100bd000e4518000ef0f520002003a00e4012000cf
:100be000f4518800f4518000f40f5200f2ff3200fb
:100bf0006f0037000028a9000008a900d502a9004d
:100c0000cfa2a9000d003700c9000700640d07003e
:100c100000027800e00f520002003a008402200037
:100c2000f45188002480200014027800e00f520064
:100c300002003200c4032000f4518800f451800007
:100c4000fe0f5200f0ff3200590037000028a900c3
:100c50000008a900d502a800cfa2a90017003700fc
:100c6000b30007004e0d070000027800e00f5200ad
:100c700006003a003417800064026200e00f520060
:100c80000200320024032000f4518800440d0700c4
:100c900000027800e00f520002003200e401200060
:100ca000f45188002480200014027800e00f5200e4
:100cb00002003200c4032000f4518800f551800086
:100cc00084022000848f5200e5ff32003800370094
:100cd0000028a9000008a900d502a800cfa2a800fa
:100ce0001500370092000700390d07000002780058
:100cf000e00f520008003a00290d070000027800ba
:100d0000e00f520004003a003417800064026200d1
:100d1000e00f520002003a0084022000f4518800e3
:100d20002480200014027800e00f520002003200fc
:100d3000c4032000f4518800f551800024032000f2
:100d4000848f5200e7ff3200190037000028a90005
:100d50000008a800d502a900cfa2a900070037000b
:100d6000730007002480200014027800e00f520076
:100d700002003a0044012000f4518800f55180003f
:100d8000c4032000848f5200f5ff320008003700b2
:100d90000028a8000008a800d502a900cfa2a90039
:100da00064042000f451880061000700feff370052
:100db0000080fa00000006000000fa007d0607002f
:100dc0000002eb00e45188008880a9009080a80010
:100dd0008260a800340580000400a0000410a00078
:100de0000420a0003405880054f92d0084088800f0
:100df000440d2300640888000002eb0034088800da
:100e000084c0a900d4fa2d002408880044422f0091
:100e1000140888000042eb000002fd004eeab70013
:100e20000002fd00c8050700004278000002fd0036
:100e30004eeab7000002fd000042eb000002fd0098
:100e40004eeab7000002fd000488a8000608a900c9
:100e50000628a9000648a9000668a900e4a4200005
:100e6000144278000482fb006102620004427800b0
:100e7000e04f5200010032000608a800e4a4200060
:100e8000144278000482fb0062026200e00f52000c
:100e9000010032000628a800e4a4200014427800d3
:100ea0000482fb0064026200e00f52000100320085
:100eb0000648a800e4a42000144278000482fb0045
:100ec00068026200e00f5200010032000668a800cc
:100ed0002400200045002000849fbe000400210063
:100ee000c5002000849fbe004600200004002400ae
:100ef000c50020003100200002682900830920007d
:100f00001000200000070700e88757009500200028
:100f10002400200013002000a20f200070e8280009
:100f2000010020006d0807000080fa0000000600a4
:100f30000400fa008908070044528000e00f5200c4
:100f40000600320060010700a45280000402e8009d
:100f5000a45288000002eb0044528800f551800042
:100f6000c4032000848f520007003a00740c07006d
:100f700000027800e00f52000300320024802000bd
:100f80008002eb00050a780005178000041020009d
:100f900004826200e00f520001003a000208a8003b
:100fa000051780000408200004826200e00f520050
:100fb00001003a000228a800341780006102620094
:100fc000e00f520001003a0002c8a8001516800088
:100fd0000408200004826200e00f520001003a0081
:100fe00002e8a800a5168000040024000482620024
:100ff000e00f520001003a000248a80034178000b8
:1010000068026200e00f52000500320034178000d1
:1010100064026200e00f520001003a000288a8005a
:10102000341780006402620004f0a7000402ea00a2
:101030000402e9004f22de00044278000482fb0033
:101040006102620026408000e5ff2f0085026300f8
:101050000502720024408800341780006802620094
:1010600004f0a7000402ea000402e9004f22de00b7
:10107000044278000482fb00610262000402420024
:1010800026408000d5ff2f00850263000502720014
:1010900024408800441680004322de006142620042
:1010a0000482fb00610262004222dd0026408000d3
:1010b000b5ff2f00850263000502720024408800fe
:1010c000441680004222de00614262000482fb007e
:1010d000610262004322dd002640800075ff2f0080
:1010e0008502630005027200244088002504800008
:1010f0000404200004826200e00f5200d30032009a
:1011000084c0a900d45180000402e800d4518800b2
:10111000045280006102620004427800e04f5200f5
:1011200002003200d542a80001003700d542a900d4
:101130000452800064026200e00f5200030032009b
:10114000e9a2a900c882a80002003700e9a2a8000d
:10115000c882a9000452800068026200e00f5200b9
:1011600002003200d402a80001003700d402a90016
:1011700044782d0075012000048fbe0024528000a9
:10118000050020000401be001e00be00d5fd0700c2
:101190000002be00048fbe001e027800744088006a
:1011a0002404800068026200e00f520003003a004d
:1011b00074408000f80f520002003e000002eb0075
:1011c0007440880084802000144278000482fb0070
:1011d000c822dd00848020000402e8001442780068
:1011e0000482fb0004824200840078000000eb00cf
:1011f000af0b0700848020000482e80014427800ce
:101200000482fb00c822dd008480200063024200cb
:10121000144278000482fb000482420084007800bb
:1012200010002000a20b070084802000650242000d
:10123000144278000482fb00c822dd008480200074
:1012400064024200144278000482fb0004824200df
:101250008400780020002000950b07008480200087
:1012600068024200144278000482fb00c822dd00bc
:101270008480200069024200144278000482fb004e
:10128000048242008400780030002000880b0700b0
:10129000848020006a024200144278000482fb002d
:1012a000c822dd00848020006b02420014427800d6
:1012b0000482fb0004824200840078004000200089
:1012c0007b0b0700848020006d02420014427800ee
:1012d0000482fb00c822dd00848020006c024200f2
:1012e000144278000482fb000482420084007800eb
:1012f000500020006e0b0700848020007002420026
:10130000144278000482fb00c822dd0084802000a3
:1013100071024200144278000482fb000482420001
:101320008400780060002000610b070084802000aa
:1013300072024200144278000482fb00c822dd00e1
:101340008480200073024200144278000482fb0073
:10135000048242008400780070002000540b0700d3
:101360008480200075024200144278000482fb0051
:10137000c822dd00848020007402420014427800fc
:101380000482fb0004824200840078008000200078
:10139000470b070084802000780242001442780046
:1013a0000482fb00c822dd00848020007902420014
:1013b000144278000482fb0004824200840078001a
:1013c000900020003a0b0700848020007a0242003f
:1013d000144278000482fb00c822dd0084802000d3
:1013e0007b024200144278000482fb000482420027
:1013f00084007800a00020002d0b070034528000ec
:1014000084007800b0002000290b070014528000ef
:1014100084007800c0002000250b07007440800085
:1014200084007800d0002000210b0700a452800027
:1014300084007800e00020001d0b0700245280008b
:1014400084007800f0002000190b07000080fa00eb
:10145000000006000000fa00d45180004422de00a3
:101460006302620005002000360020000700200013
:10147000860f5200878f5a0011003e000460010061
:101480000300370005003700070037000900370068
:10149000e9a2a800e9e2a80009003700e9a2a90032
:1014a000e9e2a80006003700e9a2a800e9e2a900e5
:1014b00003003700e9a2a800e9e2a800000000004c
:1014c0000080fa00000006000000fa000517800006
:1014d0000404200004826200e00f520003003a007e
:1014e0002d000700b1000700050037000268a800c2
:1014f00084802000ef0242000042eb00844a780022
:10150000dc000700155280002452800022002000d9
:101510008500780004007800cc0f070000027800f6
:1015200024528800120b070000027800e00f5200de
:101530000b00320074408000e581200095037800a4
:1015400075812000150378003552800087017800ee
:10155000060178008500780030002000340907007b
:10156000345280000402e800345288007640800043
:101570003552800004a52000144278000482fb004c
:101580000601780085007800040078002b0707002a
:101590000080fa00000006000400fa00881f7800ae
:1015a000e8c2a90000000000d682a90000000000e7
:1015b0001000200001002000ba0f0700d682a8000a
:1015c000000000001000200001002000b50f0700ff
:1015d000341780004722de00614262000482fb0073
:1015e000040f78000042eb002447980012003700f7
:1015f000e8c2a800000000001e02780004024200b9
:10160000040f7800341780004722de006142620038
:101610000482fb001e0f7200e8c2a9000000000057
:1016200010002000010020009e0f07002e429000b5
:101630000442e800244798002e429000e74f5200f1
:10164000ebff3600d682a900000000000410200045
:101650001e026200e00f520005003200848020006c
:10166000ee02420000c2eb00844a78000500370019
:1016700084802000ee0242001e02780004427800be
:10168000844a7800848020006f0442008480200017
:101690006e02420014427800044078000d000700fa
:1016a00000427800044c7800848020006f024200e1
:1016b00014427800ec4f420002003e00e042a900d4
:1016c00001003700e042a8004f0478000080fa00d3
:1016d000000006000400fa00204798002e42900007
:1016e000ea4f5200120036000002eb00040f7800af
:1016f000040037002e4290000442e900244798007d
:101700001e0fe8002e4290008482fb00b4002000ef
:10171000110009008482d800010278000442780098
:101720000482fb009e0f5200f2ff3d0002003700d2
:101730000042eb0024479800f5a420009542780071
:101740002e42900084cf52001100320024a52000c8
:10175000144278000442e8000002fd0052eab7009b
:101760000002fd0024a5200014427800ee4f520034
:1017700004003e00f4a4200014427800244798009e
:10178000060037002e4090004feab70003003700f4
:101790000042eb000400780052eab7002e429000ad
:1017a000044078000080fa00000006000000fa0003
:1017b0004416800068026200e00f520019003200f7
:1017c0004416800064026200e00f520015003200ef
:1017d000151680000400210004826200e00f520010
:1017e00008003200d6e2a800d662a800d1c2a80044
:1017f00014c0b3000002fd0050eab7000002fd0073
:101800001a003700d6e2a800d662a800d1c2a9000b
:101810000042eb000002fd0050eab7000002fd00ac
:10182000120037004416800064026200e00f52008c
:1018300008003200d6e2a800d662a900d1c2a900f1
:101840000042eb000002fd0050eab7000002fd007c
:1018500006003700d6e2a800d662a900d1c2a800cf
:1018600014c0b3000400780050eab7000080fa000a
:10187000000006000c00fa00881f7800d6a2a8001d
:1018800000000000d6c2a9000000000004a520004e
:1018900014427800e14f520019003a008480200081
:1018a00064024200144278000002fd004aeab700d8
:1018b0000002fd008480200065024200144278008e
:1018c0000002fd004beab7000002fd00848020000a
:1018d0006d024200144278000002fd004ceab7009d
:1018e0000002fd00848020006c0242001442780057
:1018f0000002fd004deab7000002fd0018003700ad
:101900008480200074024200144278000002fd002e
:101910004aeab7000002fd00848020007502420000
:10192000144278000002fd004beab7000002fd00ff
:10193000848020007d024200144278000002fd00f5
:101940004ceab7000002fd00848020007c024200c7
:10195000144278000002fd004deab7000002fd00cd
:101960000002eb00040f78000c0037008480200098
:101970006f024200144278008482fb000653280064
:101980001e027800040242000402430014027800a0
:10199000848f5200050036001e0fe8001e027800fa
:1019a000e30f5200f1ff3600010037000000000095
:1019b0001e027800e00f52001e003a0004a520002d
:1019c00014427800e14f52000d003a00848020005c
:1019d000f602420084802000630242001442780034
:1019e000844a780084802000f7024200848020002e
:1019f0006b02420014427800844a7800d20137001a
:101a000084802000f602420084802000730242009d
:101a100014427800844a780084802000f702420053
:101a2000848020007b02420014427800844a7800bf
:101a3000c50137001e027800e30f52001d0036007a
:101a400004a5200014427800e14f52000c003a0037
:101a500084802000f6024200848020001442780036
:101a6000844a780084802000f702420084802000ad
:101a70006802420014427800844a7800b2013700bc
:101a800084802000f6024200848020007002420020
:101a900014427800844a780084802000f7024200d3
:101aa000848020007802420014427800844a780042
:101ab000a50137001e027800e10f52008a003a00ab
:101ac00004a5200014427800e14f520043003a0080
:101ad0008480200076044200848020006f0242004f
:101ae000144278008480fb00848020000482e80097
:101af000144278000480fb008480200063024200ce
:101b0000144278008483fb00055328001e027800ed
:101b10000402420004824200140378001e02e9001d
:101b20000553280004024200048242009402780017
:101b300001027800800178000701780086007800b3
:101b400005007800200207000002780004427800b7
:101b5000044c7800848020007704420084802000b8
:101b60006f024200144278008480fb0084802000d1
:101b70006a024200144278000480fb008480200046
:101b80006b024200144278008483fb000553280056
:101b90001e0278000402420004824200140378000e
:101ba0001e02e9000553280004024200048242009c
:101bb0009402780001027800800178000701780023
:101bc0008600780005007800ff0107000002780019
:101bd00004427800044c78005b01370084802000c8
:101be00076044200848020006f0242001442780094
:101bf0008480fb008480200072024200144278003e
:101c00000480fb00848020007302420014427800ac
:101c10008483fb00055328001e0278000402420062
:101c200004824200140378001e02e90005532800d4
:101c3000040242000482420094027800010278000b
:101c400080017800070178008600780005007800a0
:101c5000dd0107000002780004427800044c78009f
:101c60008480200077044200848020006f024200bc
:101c7000144278008480fb00848020007a024200b5
:101c8000144278000480fb00848020007b02420024
:101c9000144278008483fb00055328001e0278005c
:101ca0000402420004824200140378001e02e9008c
:101cb0000553280004024200048242009402780086
:101cc0000102780080017800070178008600780022
:101cd00005007800bc01070000027800044278008b
:101ce000044c7800180137001e027800e20f520001
:101cf0008a003a0004a5200014427800e14f520007
:101d000043003a0084802000760442008480200052
:101d10006f024200144278008480fb00848020001f
:101d20000402e800144278000480fb008480200054
:101d30000482e800144278008483fb0005532800e5
:101d40001e0278000402420004824200140378005c
:101d50001e02e900055328000402420004824200ea
:101d60009402780001027800800178000701780071
:101d700086007800050078009301070000027800d3
:101d800004427800044c78008480200077044200ec
:101d9000848020006f024200144278008480fb009f
:101da0008480200069024200144278000480fb0015
:101db000848020006a024200144278008483fb0081
:101dc000055328001e0278000402420004824200eb
:101dd000140378001e02e9000553280004024200a3
:101de00004824200940278000102780080017800a9
:101df000070178008600780005007800720107006e
:101e00000002780004427800044c7800ce003700cd
:101e10008480200076044200848020006f0242000b
:101e2000144278008480fb0084802000710242000c
:101e3000144278000480fb0084802000720242007b
:101e4000144278008483fb00055328001e027800aa
:101e50000402420004824200140378001e02e900da
:101e600005532800040242000482420094027800d4
:101e70000102780080017800070178008600780070
:101e80000500780050010700000278000442780045
:101e9000044c780084802000770442008480200075
:101ea0006f024200144278008480fb00848020008e
:101eb00079024200144278000480fb0084802000f4
:101ec0007a024200144278008483fb000553280004
:101ed0001e027800040242000482420014037800cb
:101ee0001e02e90005532800040242000482420059
:101ef00094027800010278008001780007017800e0
:101f000086007800050078002f01070000027800a5
:101f100004427800044c78008b0037001e027800e1
:101f2000e30f520088003a0004a520001442780014
:101f3000e14f520042003a008480200076044200c3
:101f4000848020006f024200144278008480fb00ed
:101f500084802000144278000480fb0084802000ec
:101f60000402e800144278008483fb000553280033
:101f70001e0278000402420004824200140378002a
:101f80001e02e900055328000402420004824200b8
:101f9000940278000102780080017800070178003f
:101fa000860078000500780007010700000278002d
:101fb00004427800044c78008480200077044200ba
:101fc000848020006f024200144278008480fb006d
:101fd0008480200068024200144278000480fb00e4
:101fe0008480200069024200144278008483fb0050
:101ff000055328001e0278000402420004824200b9
:10200000140378001e02e900055328000402420070
:102010000482420094027800010278008001780076
:10202000070178008600780005007800e6000700c8
:102030000002780004427800044c78004200370027
:102040008480200076044200848020006f024200d9
:10205000144278008480fb008480200070024200db
:10206000144278000480fb0084802000710242004a
:10207000144278008483fb00055328001e02780078
:102080000402420004824200140378001e02e900a8
:1020900005532800040242000482420094027800a2
:1020a000010278008001780007017800860078003e
:1020b00005007800c40007000002780004427800a0
:1020c000044c780084802000770442008480200043
:1020d0006f024200144278008480fb00848020005c
:1020e00078024200144278000480fb0084802000c3
:1020f00079024200144278008483fb0005532800d3
:102100001e02780004024200048242001403780098
:102110001e02e90005532800040242000482420026
:1021200094027800010278008001780007017800ad
:102130008600780005007800a30007000002780000
:1021400004427800044c78000002eb00040f780091
:102150008b0037001e027800e00f520008003a00a2
:102160008480200077024200144278000482fb0041
:102170000500200024079800350798003600370036
:102180001e027800e10f520008003a00848020000f
:1021900076024200144278000482fb000500200011
:1021a00024079800350798002b0037001e0278009e
:1021b000e20f520007003a00a4a420001442780065
:1021c0000482fb00050020002407980035079800d2
:1021d000210037001e027800e30f520007003a008a
:1021e000b4a42000144278000482fb000500200003
:1021f0002407980035079800170037001e02780062
:10220000e40f520007003a00d4a4200014427800e2
:102210000482fb0005002000240798003507980081
:102220000d0037001e027800e50f520007003a004b
:10223000c4a42000144278000482fb0005002000a2
:102240002407980035079800030037006022b80083
:1022500024079800350798000002eb001407980047
:102260002c003700e8c2a900000000002e039000f7
:10227000be0390000408200005002000060078003e
:1022800007037800840378000502780007006000e7
:102290000402630005002000c022dd0004002000cd
:1022a0000403be006102b800040373008583730059
:1022b00046079800570798002e029000be02900033
:1022c0000402420085824a002407980035079800de
:1022d0004e039000de03900004082000050020005b
:1022e000840f5300858f5b0003003a00e902a800c9
:1022f0000000000002003700e902a9000000000011
:10230000e8c2a800000000001e0290000402e800dd
:10231000140798001e029000e70f5200d1ff36000c
:102320001e027800e10f520005003a00d762a900b2
:1023300000000000d762a800000000000f00370076
:102340001e027800e30f520005003a00d782a90070
:1023500000000000d782a80000000000070037003e
:102360001e027800e50f520004003a00d7a2a9002f
:1023700000000000d7a2a800000000001e0fe80027
:102380001e027800e50f520072ff3600d6a2a900a7
:102390000000000005178000040420000482620091
:1023a000e00f520004003a00d6c2a800000000006e
:1023b0000268a900010037000268a8004f047800f5
:1023c0000080fa00000006001400fa00889fbe009a
:1023d0008a9fbe0050079800610798007207980016
:1023e000030f9800140f98007e029000040f7800ed
:1023f000ee0290005e029000848f52004c00360086
:102400000e0a9000050020000400be00acf8070092
:102410000004be007e029000050020000400be0003
:10242000a7f807000002be000401be000800be00bd
:10243000e8f707000002be000404be006e02900030
:10244000050020000400be009df807000005be0046
:102450005e029000050020000400be0098f807000e
:102460000002be000401be000a00be00d9f707004a
:102470000002be000401be000800be0033f80700e1
:102480000002be0014079800250798001e0a90005d
:10249000050020000400be0089f807000004be000b
:1024a0005e029000050020000400be0084f80700d2
:1024b0000002be000401be000800be00c5f7070010
:1024c0000002be0034079800450798001e019000e6
:1024d000ae0190003e009000ce009000cdf80700c5
:1024e0000002be0034079800450798007e02900065
:1024f000050020000400be0071f807000002be00c5
:102500000401be003e009000ce009000b2f707002c
:102510000002be0034079800450798003e00900076
:10252000ce0090004bf807000002be00040f7800b8
:102530001e027800040078004f05be004f04be0064
:102540000080fa00000006000600fa00d062a90030
:10255000d042a9001000200001002000d10b07008c
:10256000d042a8001000200001002000cd0b070081
:10257000741680004422de00614262000482fb0087
:10258000040f78000042eb00244798001000370049
:10259000d062a8001e02780004024200040f7800f6
:1025a000741680004422de00614262000482fb0057
:1025b0001e0f7200d062a900100020000100200050
:1025c000b80b07002e4290000442e8002447980010
:1025d0002e429000e74f5200edff36001e027800b9
:1025e0000442780061426200344798001e0278007d
:1025f0000442780070426200444798004e429000c6
:102600000482fb004422de00844278003e429000b7
:1026100084cf52000200320000c2eb00620037009b
:102620001e0278000442780062426200344798003b
:102630001e027800044278000442b2004447980029
:102640004e4290000482fb004422de008442780067
:102650003e42900084cf52000200320000c2eb00e4
:10266000510037001e027800044278006442620084
:10267000344798001e027800044278000444b200f7
:10268000444798004e4290000482fb004422de0042
:10269000844278003e42900084cf52000200320013
:1026a00000c2eb00400037001e02780004427800b0
:1026b00068426200344798001e0278008442780025
:1026c00004c8b30004c26200444798004e42900020
:1026d0000482fb004422de00844278003e429000e7
:1026e00084cf52000200320000c2eb002e003700ff
:1026f0001e02780004427800684262003447980065
:102700001e02780004427800674262004447980045
:10271000be4290004e42900084cf52000200320030
:1027200000c2eb0020003700940920009e027800d0
:10273000848f520002003a0024c0b3001a00370010
:10274000a40a20009e027800848f520002003a0002
:1027500044c0b30014003700c40c20009e0278006f
:10276000848f520002003a0084c0b3000e0037008c
:10277000740720009e027800848f520002003a0005
:1027800004c1b30008003700f40f20009e02780057
:10279000848f520003003a001e0278000442780041
:1027a000010037000042eb00044078000080fa008e
:1027b000000006000000fa00dec2a800d682a900d0
:1027c000d6a2a900d6c2a900d282a900d2a2a9008d
:1027d000d2c2a900c1e2a800c1c2a800dec2a800fe
:1027e000d042a900cc42a900d062a900cc62a900c5
:1027f000cc82a800de62a800d3e2a900d7e2a8003c
:10280000de42a900dee2a800df02a800d3c2a800d1
:10281000e442a800e662a900e462a800c662a8003b
:10282000c642a800d1c2a800cdc2a900d2e2a90028
:10283000d6e2a800d622a900d222a900d642a8003a
:10284000d242a900d662a800d262a900c182a80023
:10285000c1a2a800d302a900d502a900cda2a90057
:10286000cfa2a900d322a900d522a900c6a2a900ff
:10287000c8a2a900c682a900c882a900d202a900e4
:10288000d402a900d342a900e5a2a900e9a2a800a8
:10289000e5e2a900e9e2a800e8c2a900e4c2a900b3
:1028a000e902a900e502a900e4e2a800d382a90098
:1028b000d782a900d3a2a900d7a2a900d362a900f8
:1028c000d762a900c0e2a800c0c2a800e402a80024
:1028d000e422a900e622a900de82a800dea2a90067
:1028e000f40f2000441588000002eb000415880056
:1028f0000080fa0000000600801f7800849fbe0060
:102900004400f8004200f8000000fa0005088000ca
:1029100064092000848f520004003e0024048000db
:1029200068026200e00f52000d00320004088000cf
:10293000145288000002eb00040888002404800080
:1029400068026200e00f52000200320054422f0081
:10295000145288008460a9001400200044528800aa
:102960008880a9000080fa004200f9004400f900c4
:102970004f02be004f007800004006000000fa0041
:1029800000000000000000000000fe000080fa00cf
:10299000004006000400fa00100798001e02900094
:1029a000c4029000050f78001e0278006123b80071
:1029b00004e02c00f5ff2f000602420087824a0047
:1029c0004600200007002000860f5200878f5a0023
:1029d00049003e0004600100040037001200370087
:1029e00021003700300037003f0037001e02900002
:1029f0003402900044408800a48020009e02900091
:102a0000a5029000050a7800c48020009e02900074
:102a100095029000050a7800e45180000400a000af
:102a2000e451880036003700048120009e029000a7
:102a3000b5029000050a7800248120009e029000d3
:102a4000a5029000050a7800448120009e029000b3
:102a500095029000050a7800e45180000410a0005f
:102a6000e451880026003700848120009e029000f7
:102a7000b5029000050a7800a48120009e02900013
:102a8000a5029000050a7800c48120009e029000f3
:102a900095029000050a7800e45180000420a0000f
:102aa000e451880016003700048220009e02900046
:102ab000b5029000050a7800248220009e02900052
:102ac000a5029000050a7800448220009e02900032
:102ad00095029000050a7800e45180000430a000bf
:102ae000e4518800060037001e0290001402900096
:102af000045288000200370014060700000000009e
:102b00000080fa00000006001200fa00200798007a
:102b1000320798004307980051079800640798000f
:102b200075079800060f980034012000644588005e
:102b30000e0a9000e70f52000200360074002000d9
:102b4000040f98005e029000b45088006e0290005e
:102b5000fe029000c4508800d55088003eba97000d
:102b6000ceba9700e4508800f55088001eba97004e
:102b7000aeba97000451880015518800c4508000f7
:102b8000d55080000400be00e3090700e450800037
:102b9000f55080000400be00df09070004518000ea
:102ba000155180000400be00db090700b45280000c
:102bb0000402e800b4528800848b20008002eb00fd
:102bc000050a7800848b20008002eb001502980033
:102bd000848b20008002eb0025029800848b20006b
:102be0008002eb00350298000002eb00644288008e
:102bf000b452800044458800c452800034458800a7
:102c0000008c20008b0907008096200089090700ae
:102c10003e029000ce029000048fbe001e02be0055
:102c2000482bdd004822de0004027300c82ade00c3
:102c3000048fbe001e02be00a20020000300200080
:102c40000400be0027f707000002be00048fbe008c
:102c5000f4ff2f00050020001e03be00840f530068
:102c6000858f5b0003003600f4ff2f000500200075
:102c7000048fbe0054fb2500f40888001e02780073
:102c8000d40888000002eb00a408880086a0a900f0
:102c90008ea0a9001fe1a8003e029000ce02900085
:102ca000048fbe001e02be00482bdd004822de005d
:102cb00004027300c82ade00048fbe001e02be009c
:102cc0004e2bdd004222de0004027300c22ade0029
:102cd000048fbe00f4ff2f00050020001e03be007d
:102ce000840f5300858f5b0003003600f4ff2f0034
:102cf00005002000048fbe00d4fb250004098800d5
:102d00001e027800e408880086c0a9008ec0a900d1
:102d100021e1a800c4508000d55080000400be000e
:102d20007d0907002e029000e20f52007100320070
:102d3000a4392000245188006439200034518800cf
:102d4000e438200044518800e437200054518800c2
:102d5000e436200064518800e43520007451880076
:102d6000e4342000845188008f60a9008760a900a6
:102d70000e0a900004427800674262000482fb0061
:102d8000670262004c22dd0006058000f5ff280086
:102d90008502630005027200040588000002eb0052
:102da000b41c88009803a8009823a8009843a800a2
:102db00098a3a80004402000841c880000000000a4
:102dc000851c8000040e200084826200040820001c
:102dd000848f5200faff3a003e039000ce03900029
:102de00004842700d5172000840f5300858f5b00d3
:102df00003003a0044002000941c880013003700b0
:102e00003e039000ce03900004d022001513200052
:102e1000840f5300858f5b0003003a0034002000cc
:102e2000941c8800090037003e039000ce039000f8
:102e30000468290085092000840f5300858f5b00fa
:102e400002003a0014002000941c8800a4392000dd
:102e5000a41c8800c4ff210084198800c4ff21003d
:102e6000c41988000002eb00041888000410200038
:102e700044188800b4508000c222dd0004c0200045
:102e8000050272008418880014002000741b88005a
:102e900024002000f41a880034002000741a8800ee
:102ea000040c2000241b8800040c2000a41a8800b5
:102eb000040c2000241a88000002eb00741c880017
:102ec0000002eb00f41b88000002eb00841c880069
:102ed00000000000851c8000040e200004826200b7
:102ee000e00f5200fbff3a008f60a80090c0a900dd
:102ef0006d003700a445200024518800644520005f
:102f000034518800e444200044518800e443200008
:102f100054518800e442200064518800e4412000bc
:102f200074518800e44020008451880090c0a900ba
:102f300088c0a9000e0a900004427800674262002f
:102f40000482fb00670262004822dd003605800033
:102f5000f58f2f008502630005027200340588009a
:102f60000002eb00b42288005804a8005824a800ee
:102f70005844a80058a4a8000440200084228800d7
:102f80000000000085228000040e20008482620080
:102f900004082000848f5200faff3a003e0390009c
:102fa000ce03900004842700d5172000840f53001f
:102fb000858f5b0003003a004400200094228800c3
:102fc000130037003e039000ce03900004d022008f
:102fd00015132000840f5300858f5b0003003a0017
:102fe0003400200094228800090037003e0390003e
:102ff000ce0390000468290085092000840f530047
:10300000858f5b0002003a001400200094228800a3
:10301000a4392000a4228800c4ff2100841f880056
:10302000c4ff2100c41f88000002eb00041e8800ba
:1030300004102000441e880004c02000841e880064
:10304000140020007421880024002000f42088004f
:103050003400200074208800040c20002421880003
:10306000040c2000a4208800040c200024208800e8
:103070000002eb00742288000002eb00f4218800bb
:103080000002eb00842288000000000085228000fe
:10309000040e200004826200e00f5200fbff3a00a1
:1030a00090c0a8008f60a900c50607000002780044
:1030b000e00f520007003a00ce060700c1e42f00df
:1030c00000182000fb060700110320001018200044
:1030d000f80607000080fa00000006000c00fa0065
:1030e000008fbe002207980033079800440798001d
:1030f000550798001e027800d44188001e02be00c9
:10310000402ade0005002000048fbe001e02780069
:10311000c44188002e029000e4418800101820006d
:103120000d07070000027800f44188003e0290007d
:10313000144288004e029000244288005e029000f3
:1031400034428800001820000307070000027800be
:10315000044288000080fa00000006000000fa0027
:1031600052000700f50007007902070088020700f7
:10317000848b2000940278000400280004826200fe
:10318000e00f520001003200b5020700043a80004f
:1031900054458800245180009402780004f02f00e8
:1031a000848262007644800004f02f0004026300f1
:1031b000848f52000b00360075448000f40f20000d
:1031c00004826200744488007544800024518000a9
:1031d0001403780004f02f0004026300048242000c
:1031e000744488002451800094027800f40f200079
:1031f0008482620076448000f40f200004026300a1
:10320000848f52000b0036007544800004f02f00bc
:103210000482620074448800754480002451800058
:1032200014037800f40f20000402630004824200bb
:10323000744488000080fa00000006001000fa00c4
:10324000500798006107980072079800b4508000fa
:103250004222dd00040f78006e02900014079800ef
:103260005e029000e00f5200030032000082eb008b
:1032700024079800020037000002eb0024079800a2
:103280007e0290003407980084518000840078000a
:103290000e007800dd070700644480000402e800a7
:1032a000644488000080fa00000006000a00fa006a
:1032b000050037008e007800008c2000a40707006e
:1032c0000e0078000b000700008c2000520707005a
:1032d00000027800e00f5200f6ff3a00744b8000c5
:1032e0000445880034468000144588000080fa00b8
:1032f000000006000400fa00100798001e0290006b
:10330000c4029000050f780004002f009e026200a6
:10331000b45080004c22dd00848f52000400320043
:10332000d44480000402e800d4448800250037001b
:10333000f4ff20001e0f6200f40f20009e027800b0
:10334000848f520003003e001e0090001f00070003
:103350001c003700f41f20009e027800848f52006a
:1033600003003e001e0090002f00070015003700ec
:10337000f43f20009e027800848f520003003e003c
:103380001e00900083fd07000e003700f48f200020
:103390009e027800848f520007003600f49f2000c0
:1033a0009e027800848f520003003e001e009000b1
:1033b0003100070003003700d44480000402e80015
:1033c000d44488000080fa00000006000400fa00df
:1033d000100798001e029000c4029000050f7800ac
:1033e000f4ff20001e0f62001e027800e10f520061
:1033f00003003200e30f52000300320004003700e4
:103400000000fe0006003700fa0507000400370040
:10341000d44480000402e800d44488000000000086
:103420000080fa00000006000400fa00100798006f
:103430001e029000c4029000050f7800f4ff2000e7
:103440001e0f62001e02900014029000840078009b
:103450001e007800170607001e029000a4029000cc
:103460001e02e800850078000400780011060700bd
:103470000080fa00000006000e00fa0060079800c5
:103480006e029000c4029000050f7800f4ff200047
:103490001e0f620004802f001e0f4200b4508000f7
:1034a000c222dd000400210005027200140798000a
:1034b0006e029000c402900004802f00048242003b
:1034c000540798000002eb00440798001e02e80031
:1034d00004007800200607000002780034079800f6
:1034e0001e0078001c0607000002780024079800e0
:1034f0000e82e8008400780080962000fc06070019
:10350000645180001402780068026200e00f5200eb
:1035100008003a00750480000480200004826200e4
:10352000e00f5200020032008760a800010037005f
:1035300088c0a8000080fa00000006000000fa0021
:10354000350480000402200004826200e00f520073
:103550001201320086a0a9000440800061026200ce
:10356000e00f520005003200045180001551800028
:103570000400be0045070700040037000451800026
:10358000155180000400be002f0707008450800002
:103590000402e8008450880084508000e90f520043
:1035a000180036000002eb00845088009450800020
:1035b0000402e80094508800945080006302620086
:1035c00094508800e4508000f55080000400be0054
:1035d0006307070000027800e00f52000500320088
:1035e000e4508000f55080000400be00270707006b
:1035f00004003700e4508000f55080000400be0055
:1036000011070700e7000700845080000500200034
:103610009600200007002000860f5200878f5a0076
:10362000de003e0004600100090037001200370090
:103630001b003700240037002d003700360037000c
:103640003f0037005800370071003700a1003700f5
:1036500044408000574080006640800075408000f4
:1036600087017800060178008500780000042000ba
:10367000fd000700c90037008440800097408000ab
:10368000a6408000b54080008701780006017800e0
:103690008500780000052000f3000700bf00370018
:1036a000c4408000d7408000e6408000f5408000a4
:1036b0008701780006017800850078000006200068
:1036c000e9000700b5003700044180001741800081
:1036d000264180003541800087017800060178008e
:1036e0008500780000072000df000700ab003700ee
:1036f0004441800057418000664180007541800050
:103700008701780006017800850078000008200015
:10371000d5000700a1003700844180009741800058
:10372000a6418000b541800087017800060178003d
:103730008500780000092000cb00070097003700c3
:1037400094508000e00f520003003200945080003b
:10375000e20f52000a003a00744380006743800081
:1037600056438000454380008701780006017800b9
:103770008500780000102000bb000700870037009c
:10378000b4438000a74380009643800085438000b7
:10379000870178000601780085007800001120007c
:1037a000b10007007d00370094508000e00f520008
:1037b0000300320094508000e20f52000a003a00e9
:1037c000f4438000e7438000d6438000c543800077
:1037d000870178000601780085007800001220003b
:1037e000a10007006d0037003444800027448000aa
:1037f00016448000054480008701780006017800a7
:103800008500780000132000970007006300370050
:1038100094508000e00f52000a003a007444800087
:10382000674480005644800045448000870178004a
:103830000601780085007800002020008a0007003b
:103840005600370094508000e10f52000a003a0001
:10385000b4448000a74480009644800085448000e2
:10386000870178000601780085007800002120009b
:103870007d0007004900370094508000e20f52009d
:103880000a003a00f4448000e7448000d6448000f7
:10389000c544800087017800060178008500780023
:1038a00000222000700007003c00370034458000f3
:1038b0002745800016458000054580008701780077
:1038c00006017800850078000023200066000700cc
:1038d0003200370094508000e00f52000a003a0096
:1038e000f4418000e7418000d6418000c54180005e
:1038f000870178000601780085007800000e20001e
:10390000590007002500370094508000e10f520055
:103910000a003a00344280002742800016428000ac
:103920000542800087017800060178008500780054
:10393000000f20004c000700180037009450800052
:10394000e20f52000a003a006745800056458000a9
:1039500045458000040525008701780006017800b0
:1039600085007800002820003f0007000b0037008a
:10397000648b200014027800a745800096458000e3
:103980008545800087017800060178008500780071
:103990000029200034000700000000000080fa0029
:1039a000000006000a00fa00b4508000c222dd00c8
:1039b0000404210005027200040f78000480200036
:1039c0001402780014079800248020001402780064
:1039d00024079800448020001402780034079800df
:1039e000648020001402780044079800745180001d
:1039f000840078000e00780004060700544480001c
:103a00000402e800544488000108a9000128a90024
:103a10000148a9000168a9000188a90001a8a9001e
:103a200001c8a90001e8a9000080fa000000060012
:103a30000a00fa00000f780011079800220798008a
:103a400033079800440798004e029000be01900092
:103a50002e0190009e0090001e00780002000700da
:103a60000080fa00000006001400fa0050079800d9
:103a70006107980072079800030f9800140f9800d0
:103a8000b4508000de0290000502720054079800d6
:103a9000de029000044020000502720054079800e6
:103aa0005e0290004222dd00540798005e02900002
:103ab000040f78009e02780004f02f000482620058
:103ac000040f78001e0278004322dd00040f780006
:103ad0009e0278005e039000f40f20000402630051
:103ae00005027200040f78001e0a90001407980067
:103af0000e0a9000240798007e0290003407980078
:103b00006e029000440798008e0078008096200096
:103b10007705070064518000140278006802620093
:103b2000e00f520008003a00750480000480200075
:103b300004826200e00f5200020032008760a80099
:103b40000100370088c0a8000080fa0000000600cd
:103b50000000fa00350480000404200004826200a2
:103b6000e00f52000800320086c0a90034458000f2
:103b70000402e8003445880034458000c4528800bf
:103b800014002000644288000080fa000000060053
:103b90000000fa00a4508000e00f520005003a0037
:103ba0000440800061026200e00f52000100320018
:103bb0007cff070004408000614262000482fb0039
:103bc000a45088000080fa00000006000200fa00fd
:103bd000000f7800848b20009e02780095029000f0
:103be000050a78001e027800a4029000848b200051
:103bf000150298001e027800b4029000848b200009
:103c0000250298001e027800c4029000848b2000d8
:103c100035029800848b20001402780094518800ab
:103c2000848b200014029000a4518800848b200013
:103c300024029000b4518800848b2000340290004c
:103c4000c45188000060fe000002eb00644288005e
:103c50000002eb00c40888000080fa0000000600a3
:103c60000000fa000002eb00444388000002eb0071
:103c7000544388000002eb00644388000002eb001c
:103c8000744388000002eb00844388000002eb00cc
:103c9000944388000002eb00a44388000002eb007c
:103ca000b44388000002eb00c44388000002eb002c
:103cb000d44388000002eb00e44388000002eb00dc
:103cc000f44388000002eb00044488000002eb008b
:103cd000144488000002eb00244488000002eb003a
:103ce000344488000002eb00444488000002eb00ea
:103cf000544488000002eb00644488000002eb009a
:103d0000744488000002eb00844488000002eb0049
:103d1000944488000002eb00a44488000002eb00f9
:103d2000b44488000002eb00c44488000002eb00a9
:103d3000d44488000002eb00e44488000002eb0059
:103d4000f44488000002eb00044588000002eb0008
:103d5000144588000002eb00244588000002eb00b7
:103d6000344588000002eb00444588000002eb0067
:103d70005445880034012000644588000002eb00af
:103d8000744588000002eb00844588000002eb00c7
:103d9000944588000002eb00a44588000002eb0077
:103da000744b88000002eb00344688000002eb00f0
:103db000b45288000002eb00c452880041e7a90019
:103dc00041c7a90040e7a9004087a9004067a900b2
:103dd0004047a9004027a9004007a90040c7a90003
:103de000345180008002eb00050a78000080fa0060
:103df000000006003600f800809fbe00829fbe00d3
:103e0000849fbe00869fbe00889fbe004400f800cd
:103e10004200f8000000fa008760a9002802800034
:103e20001902800025000700190288002802880076
:103e30000080fa004200f9004400f9004f04be007f
:103e40004f03be004f02be004f01be004f00be0038
:103e50003600f900004006003600f800809fbe00e2
:103e6000829fbe00849fbe00869fbe00889fbe00ca
:103e70004400f8004200f8000000fa0088c0a900e1
:103e800028028000190280000c0007001902880037
:103e9000280288000080fa004200f9004400f9007e
:103ea0004f04be004f03be004f02be004f01be00d4
:103eb0004f00be003600f900004006000a00fa007c
:103ec000b54480003451800014027800050272006d
:103ed000b444880044518000940278000408200013
:103ee00004826200e00f5200200032004451800042
:103ef0001402780061026200e00f52000c003a00e8
:103f0000844480000402e800844488004451800016
:103f1000840078000e007800610407002e029000f3
:103f2000444288001e029000544288000900370075
:103f3000944480000402e8009444880044518000c6
:103f4000840078000e007800550407000e00780009
:103f50001eff0700345180003551800015037800a2
:103f6000e5ff2f0085026300050a780054518000a8
:103f7000940278000408200004826200e00f5200de
:103f80000d003200a44480000402e800a44488002c
:103f90005451800084007800008c20002304070026
:103fa000345180003551800015037800d5ff2f0073
:103fb00085026300050a78006451800014027800cd
:103fc00068026200e00f520012003a008096200062
:103fd0001104070000027800e00f52000d003200cb
:103fe00064518000840078008096200071040700ee
:103ff000345180003551800015037800b5ff2f0043
:1040000085026300050a7800444480000402e80049
:104010004444880034518000940278000402200057
:1040200004826200e00f52000f003200b5448000ad
:10403000345180001402780005027200b4448800f4
:10404000f44480000402e800f44488003451800005
:104050003551800015037800f5fd2f0085026300bf
:10406000050a780010003700c4508000d550800049
:104070000400be00ba04070000027800e00f5200fe
:1040800005003200c4508000d55080000400be00fe
:104090007e04070004003700c4508000d550800023
:1040a0000400be00680407000080fa00000006005b
:1040b0000400fa00000f7800110798001e02780033
:1040c000ef0f520007003e001e02780084024200fb
:1040d00084862000048242009e029000050a780037
:1040e00001003700000000000080fa000000060018
:1040f0000000fa0044428000040078000080fa00ca
:10410000000006000000fa000002eb0044428800b4
:104110000080fa00000006000000fa00544280000f
:10412000040078000080fa00000006000000fa0099
:1041300064428000040078000080fa00000006005d
:104140000000fa00848b20001402780061026200f3
:10415000e00f5200020032000082eb000100370045
:104160000002eb00040078000080fa000000060066
:104170000000fa00848b20001402780062026200c2
:10418000e00f5200020032000082eb000100370015
:104190000002eb00040078000080fa000000060036
:1041a0000000fa00848b2000140278006402620090
:1041b000e00f5200020032000082eb0001003700e5
:1041c0000002eb00040078000080fa000000060006
:1041d0000000fa00848b200014027800680262005c
:1041e000e00f5200020032000082eb0001003700b5
:1041f0000002eb00040078000080fa0000000600d6
:104200000000fa00848b2000140278007002620023
:10421000e00f5200020032000082eb000100370084
:104220000002eb00040078000080fa0000000600a5
:104230000000fa00848b200094027800040028001b
:1042400004826200e00f5200020032000082eb00a4
:10425000010037000002eb00040078000080fa0043
:10426000000006000000fa00848b20009402780011
:104270000440200004826200e00f5200020032007d
:104280000082eb00010037000002eb000400780020
:104290000080fa00000006000000fa00848b200075
:1042a000940278000480200004826200e00f520033
:1042b000020032000082eb00010037000002eb0038
:1042c000040078000080fa00000006000000fa00f8
:1042d000848b200094027800040021000482620094
:1042e000e00f5200020032000082eb0001003700b4
:1042f0000002eb00040078000080fa0000000600d5
:104300000000fa00848b2000940278000400220050
:1043100004826200e00f5200020032000082eb00d3
:10432000010037000002eb00040078000080fa0072
:10433000000006000000fa00848b200014029000a8
:10434000040078000080fa00000006000000fa0077
:10435000d44480000402e800d44488000080fa00bd
:10436000000006001200fa001007980021079800cc
:1043700032079800034f980054079800650798008b
:1043800076079800070f98003eba9700e00f52009a
:1043900002003d00f4ff270034bf9f004eba970093
:1043a000e00f520002003d00f4ff270044bf9f00d1
:1043b0000002eb00040f78001e0390006022b8009a
:1043c000048bbe001e0290008002eb0025029800c4
:1043d0001e0290008002eb00350298001e02900041
:1043e000ae029000450298001e029000be029000ae
:1043f000550298000e4a9000ef4f52000d00360013
:104400001e02900005002800650298001e02900020
:104410008002eb00750298001e0290000500280043
:10442000050a98001e0290008002eb00150a980011
:104430001f0037000e4a90000482fb000404b00005
:104440004222dd00040f78001e00780042020700bf
:1044500000027800840278001e0290007502980025
:104460001e02e800040078003b020700000278000a
:104470009e029000e40298001e82e800040078008a
:104480003502070000027800840278001e029000c6
:10449000150a98009e0278006382420004007800aa
:1044a0002d020700000278009e029000840a980006
:1044b0001e029000de029000250a98001e02900065
:1044c000ee029000350a98001e029000fe02900055
:1044d000550a98001e0290008e0a9000650a980006
:1044e0001e0290008002eb00750a98001e029000e8
:1044f0008002eb00051298001e029000ceba9700d1
:10450000151298001e029000beba9700451298003e
:104510000080fa00000006001000fa001007980062
:104520002107980032079800034f9800540798001d
:1045300065079800760798000002eb00040f7800ea
:104540001e0290008002eb00250298001e029000df
:10455000de029000350298001e029000ee029000ec
:10456000450298001e029000fe029000550298003d
:104570001e029000ae029000650298001e0290009c
:10458000be029000750298000e4a9000e74f52005c
:104590000d0036001e02900005002800050a980054
:1045a0001e0290008002eb00150a98001e02900087
:1045b00005002800250a98001e0290008002eb00ea
:1045c000350a98001f0037000e4a90000482fb0055
:1045d0000405b0004222dd00040f78001e007800c0
:1045e000dd01070000027800840278001e029000be
:1045f000150a98001e02e80004007800d6010700a2
:10460000000278009e029000840a98001e82e80052
:1046100004007800d00107000002780084027800ce
:104620001e029000350a98009e02780063824200c4
:1046300004007800c8010700000278009e02900084
:10464000a40a98000080fa00000006000400fa00a6
:10465000100798001e029000940278001e0290003d
:1046600034029000848f5200040036001e02900035
:10467000b40290001e029000050a78001e0290000d
:10468000940278001e02900044029000848f520031
:10469000040031001e029000c40290001e0290002f
:1046a000050a78001e029000740390001e0290001c
:1046b000e40290001e0290001402780006017800c7
:1046c00085007800040078004b03070000027800a2
:1046d000040f78001e029000940a90001e029000c1
:1046e000040a900005017800840078001e0078001c
:1046f0002c03070000027800040f78001e029000cf
:10470000b40a90001e029000240a9000050178006f
:10471000840078001e007800220307000002780061
:10472000040f78001e02900024029000e00f520057
:1047300003003a001e029000d4029000050f78009a
:104740001e0290009e027800150298000080fa0078
:10475000000006000400fa00100798001e029000f6
:10476000140b90001e029000840a90001e0290001c
:10477000240290000601780085007800040078008b
:104780000803070000027800040f78001e02900062
:10479000f40290001e02900064029000050178006f
:1047a000840078001e007800fe02070000027800f6
:1047b000040f78001e029000d40290001e029000a8
:1047c0004402900005017800840078001e00780003
:1047d0000903070000027800040f78001e02900011
:1047e0009e027800350298000080fa000000060062
:1047f0000400fa00000f7800110798001e027800ec
:10480000b40290001e029000848f52000300310019
:104810001e027800b4029000150798001e0278006e
:10482000c40290001e029000848f520003003600e4
:104830001e027800c4029000150798001e0278003e
:104840009e029000050a78000080fa000000060031
:104850000200fa00000f78001e027800b4029000f7
:104860001e027800240a9000848f52000d0036004a
:104870001e027800a41290001e02780044129000dc
:1048800004024200848f52000f003e001e02780096
:10489000241290008402e8001e027800251298007d
:1048a000090037001e02780024129000e00f520029
:1048b000050032001e027800241290008402e900f4
:1048c0001e027800251298001e027800a4129000a3
:1048d0001e02780044129000848f520002003600bd
:1048e00014002000010037000002eb0004007800f3
:1048f0000080fa00000006000200fa00000f7800b5
:104900001e027800b40290001e027800340a900063
:10491000848f52000d0031001e027800b412900006
:104920001e0278004412900004024200848f52005c
:104930000f003e001e027800341290008402e8004e
:104940001e02780035129800090037001e02780018
:1049500034129000e00f5200050032001e02780071
:10496000341290008402e9001e027800351298008b
:104970001e027800b41290001e02780044129000cb
:10498000848f52000200360014002000010037001e
:104990000002eb00040078000080fa00000006002e
:1049a0000400fa00100798001e029000d40a90003c
:1049b0001e029000440a90000001eb008500780080
:1049c000040078007702070000027800040f7800e6
:1049d0001e029000640a90009e0f520003003600f1
:1049e0001e029000e40a9000050f780004f02f00ea
:1049f0009e0252001e029000440a9000848f5200d2
:104a0000040036001e029000440a90001e0f42006f
:104a10000200370004f02f00040f78001e029000ff
:104a2000340290009e0f52000d0036001e029000ce
:104a3000f40a90001e02900014129000040242003a
:104a4000848f52000f003e001e029000740a9000f6
:104a50008402e8001e029000750a980009003700e1
:104a60001e029000740a9000e00f52000500320010
:104a70001e029000740a90008402e9001e02900059
:104a8000750a98001e029000f40a90001e02900021
:104a900014129000848f520002003900140020008c
:104aa000010037000002eb00040078000080fa00eb
:104ab000000006000400fa00100798001e02900093
:104ac000d40a90001e029000440a90000001eb00fe
:104ad00085007800040078003202070000027800a8
:104ae000040f78001e029000640a90009e0f52008e
:104af000030036001e029000e40a9000050f7800c3
:104b00001e029000440a90009e0f520004003600de
:104b10001e029000440a90001e0f5200020037004f
:104b20000002eb00040f78001e0290003402900097
:104b30009e0f52000d0031001e0290008412900062
:104b40001e0290001412900004024200848f520052
:104b50000f003e001e029000041290008402e80044
:104b60001e02900005129800090037001e029000f6
:104b700004129000e00f5200050032001e02900067
:104b8000041290008402e9001e02900005129800b1
:104b90001e029000841290001e02900014129000d9
:104ba000848f5200020039001400200001003700f9
:104bb0000002eb00040078000080fa00000006000c
:104bc0000000fa00f01f20006300070000027800d8
:104bd000a5aa2a00850f520002003a001400200006
:104be000010037000002eb00040078000080fa00aa
:104bf000000006000000fa00024f2800010120001a
:104c00000001200078000700024f28000101200069
:104c10001001200074000700024f2800010120004d
:104c20002001200070000700024f28000101200031
:104c3000300120006c000700024f28000101200015
:104c40004001200068000700024f280001012000f9
:104c500050012000640007000251280001012000db
:104c600060012000600007000251280001012000bf
:104c7000700120005c000700a1aa2a00f01f20009c
:104c80000c0007000080fa00000006000c00fa008b
:104c9000000f780012079800230798003407980047
:104ca00045079800214f9800364f98000080fa0081
:104cb000000006000800fa0020079800310798005d
:104cc000ae029000f47f2000848f520020003e004e
:104cd00004002f00f5072000048fbe00053b800074
:104ce0000400280004826200e00f5200fbff3a003b
:104cf0002e02900004024200050020003e01420006
:104d0000ae814a000202be00220020000400be0064
:104d100088ed0700053b8000040028000482620043
:104d2000e00f5200fbff3a003e0390002e0290007d
:104d300004024200050020003e014200ae814a000c
:104d40000202be00060178000400be0092ed0700da
:104d50000080fa00000006000200fa00000f780050
:104d6000f67f20009e037800868f53001a003e00d5
:104d7000073b80000600280006836300e00f530015
:104d8000fbff3a001e037800060343006133b900bd
:104d900004002f00f50f20008600d0000401d00091
:104da000028240004220a80085824b004200a900f8
:104db0004220ae004200a8000482d300a601800079
:104dc00085037800a70188000402780014027800a7
:104dd000a6018800010037000082eb000400780083
:104de0000080fa00000006002c00fa00301798003e
:104df00041179800521798000002eb00040f78004a
:104e00004e129000e00f52003f0032004e12900010
:104e1000f00f5200020036000401200044179800f1
:104e20006602470004017800010120003e10900056
:104e3000370007000c0037001e0278000402420011
:104e4000de1290000482420014027800840278008e
:104e50001e0278000402420004024700660242007b
:104e6000050a78001e0fe8004e1290009e0278009e
:104e7000848f5200f0ff3900be129000f40720002a
:104e8000848f520020003e0004002f00f507200010
:104e900014079800250798003e1290004522dd0077
:104ea000050020001e039000ae03900006024200a1
:104eb00087824a001407980025079800053b800068
:104ec0000400280004826200e00f5200fbff3a0059
:104ed000020220001e009000ae00900015ed0700b9
:104ee000053b80000400280004826200e00f5200ad
:104ef000fbff3a0066024700040178001e009000a4
:104f0000ae0090002aed07000080fa0000000600c5
:104f10000a00fa002007980031079800420798001d
:104f20002e0390004433dd0016079800073b8000f5
:104f30000600280006836300e00f5300fbff3a00e1
:104f40003e039000e00f53002b0032003e03900020
:104f5000f00f5300020036000601200036079800cb
:104f6000ae039000f6072000868f530022003e001b
:104f70000003eb00060f78001b0037001e037800cb
:104f800006034300ce039000068043001e039000fa
:104f90001e034300060343006133b90004002f00e1
:104fa000f50f20008600d0000401d00002834000ed
:104fb0004220a80085834b004200a9004220ae0099
:104fc0004200a8000683d300a101800007017800f9
:104fd000a20188000603780016037800a10188006a
:104fe000060878001e0fe8003e0390009e0378003c
:104ff000868f5300e1ff39000080fa0000000600b0
:105000001001900090007800010051000000e900bc
:10501000f000b2000000060010019000900078003f
:1050200002805000f000b200000006001170a600df
:105030001a003700e40140009309e8009001900055
:105040001001e800f200b2000310e100100032008d
:10505000100178006a11b800e80140008281410027
:105060006e8150009219780066014100b2197800f3
:10507000b2197800b2197800b21978001001e8006e
:10508000f200b20002087800e60140009309e9004e
:10509000e60140009309e8001170a100000006003d
:1050a0001170a600090037006e81500012187800b8
:1050b0006601410032187800321878003218780002
:1050c000321878001170a10008003700827f21009b
:1050d00002187800020020000218780002187800f8
:1050e000021878000218780031003700000006002e
:1050f000e40140009309e800900190001001e800ed
:10510000f200b2000310e1000e003200100178003e
:105110006a11b800e801400082814100b1197800ad
:10512000b1197800b1197800b1197800b119780077
:105130001001e800f200b20002087800e601400029
:105140009309e900e60140009309e8000000060029
:1051500010019000900178000310e10008003a006f
:10516000837f2100831878000300200083187800d3
:105170008318780083187800831878000c003700b3
:105180006a11b8006801410000014100b2187800be
:10519000b2187800b2187800b2187800b218780007
:1051a000100190000201e800f200b2001200980025
:1051b000000006001130a700130037001001900016
:1051c000900178000310e1000f0032006a11b8006e
:1051d0006801410000014100ee815000b2097800f1
:1051e000e6814100b2197800b2197800b21978004e
:1051f000b21978001130a000100190000201e800ff
:10520000f200b20012009800000006001130a10068
:105210006e81500030097800660141003019780035
:105220003019780030197800301978001130a0005a
:10523000000006000018eb000018eb000018eb005f
:105240000008eb000000060001600100c422b70066
:1052500000000600ca22b70000000600d022b700f6
:1052600000000600d622b700000006000000000083
:1052700000000600e222b70000000600e822b700a6
:105280000000060000000000000006000080ea00a8
:1052900001600100c422b60000000600ca22b60068
:1052a00000000600d022b60000000600d622b6009c
:1052b000000006000000000000000600e222b60028
:1052c00000000600e822b600000006000000000012
:1052d0000000060001600100c022b70000000600c7
:1052e000c622b70000000600cc22b700000006006e
:1052f000d222b700000006000000000000000600f7
:10530000de22b70000000600e422b700000006001d
:1053100000000000000006000080ea0001600100bb
:10532000c022b60000000600c622b600000006003b
:10533000cc22b60000000600d222b6000000060013
:105340000000000000000600de22b600000006009b
:10535000e422b60000000600000000000000060085
:1053600001600100c402b60000000600ca02b600d7
:1053700000000600d002b60000000600d602b6000b
:10538000000006000000000000000600e202b60077
:1053900000000600e802b600000006000000ef0072
:1053a000000006000200e00005003b000200400093
:1053b00008003100000020005a2aec0005003700e8
:1053c0000200400003003900f0ff2f005a2aec00d1
:1053d000000037000101b8006218b8000100e000c9
:1053e00002003200f0ff2f005a2aec00cf10de003e
:1053f00001007000000006000200e00005003b0014
:105400000200400008003100000020005c2aec008f
:10541000050037000200400003003900f0ff2f00b4
:105420005c2aec00000037000101b8007018b800d9
:105430000100e00002003200f0ff2f005c2aec00c7
:10544000cc10de0001007000000006007010e100ca
:1054500001003500f20020000000e00001003a00e9
:1054600001007800130020008219dd008301e900ab
:10547000001ab800048240000580b0000222de005d
:1054800070011100822add00050072000008e100b1
:1054900003003200010035000080e8000000e90050
:0454a0000000060002
:020000040000fa
:1054a400f03fb1000180b10006003500ee030900b1
:1054b40000000000403fb1000180b100fbff3d004f
:1054c4001000b000203fb000020035000080090049
:0854d4000000000000000600ca
:020000040000fa
:1054dc003a0a00001c000000000000000008000058
:1054ec003a020000000000005a0a0000040000000c
:0854fc000000000000000000a8
:020000040000fa
:0200000400fffb
:10e000000000000000000000000000000000000010
:10e010000000000000000000000000000000000000
:10e0200000000000000000000000000000000000f0
:020000040000fa
:0200000401f009
:04000000ebbb000056
:020000040000fa
:0200000401f009
:04000400f7ff000002
:020000040000fa
:0200000401f009
:04000800efff000006
:020000040000fa
:0200000401f009
:04000c00ffff0000f2
:020000040000fa
:0200000401f009
:04001000ffff0000ee
:020000040000fa
:0200000401f009
:04001400ffff0000ea
:020000040000fa
:0200000401f009
:04001800ffff0000e6
:00000001FF
