:020000040000fa
:080000000001040000000000f3
:020000040000fa
:10000800d4110000d4110000d4110000d411000054
:10001800d4110000d4110000d4110000d411000044
:10002800d4110000d4110000d4110000d411000034
:10003800d4110000d4110000d4110000d411000024
:10004800d4110000d4110000d4110000d411000014
:10005800d4110000d4110000d4110000d411000004
:10006800d4110000d4110000d4110000d4110000f4
:10007800d4110000d4110000d4110000d4110000e4
:10008800d4110000d4110000d41100002c18000075
:10009800d4110000d4110000d4110000d4110000c4
:1000a800d4110000d4110000d4110000d4110000b4
:1000b8000e070000d4110000d4110000d411000074
:1000c800d4110000d4110000d4110000d411000094
:1000d800d4110000d4110000d4110000d411000084
:1000e800d4110000d4110000d4110000d411000074
:0800f800d4110000d411000036
:020000040000fa
:10010800d4110000d4110000d4110000d411000053
:10011800d4110000d4110000d4110000d411000043
:10012800d4110000d4110000d4110000d411000033
:10013800d4110000d4110000d4110000d411000023
:10014800d4110000d4110000d4110000d411000013
:10015800d4110000d4110000d4110000d411000003
:10016800d4110000d4110000d4110000d4110000f3
:10017800d4110000d4110000d4110000d4110000e3
:10018800d4110000d4110000d41100002c18000074
:10019800d4110000d4110000d4110000d4110000c3
:1001a800d4110000d4110000d4110000d4110000b3
:1001b8000e070000d4110000d4110000d411000073
:1001c800d4110000d4110000d4110000d411000093
:1001d800d4110000d4110000d4110000d411000083
:1001e800d4110000d4110000d4110000d411000073
:0801f800d4110000d411000035
:020000040000fa
:100200008fa920000e7f22000e0188000000000050
:10021000000020000000e000020032000001200089
:10022000200288000c000700207722000100200037
:1002300011000700000020000000e0000200320072
:10024000000002000000000038050200000000006d
:100250000040da000000fe004440a90080042000b5
:100260000000e0000300320000002000a001880030
:100270004440a8000000060091018800800078003a
:100280000000eb0015003700e280400032a0b4000f
:100290009101ba00e280400032a0b4009102ba009d
:1002a000e280400032a0b4000002eb00472bde00e9
:1002b000f507b200602ce10004003a000059eb00a1
:1002c0008301e900fdff3e00040037006128e100e2
:1002d000010032000082eb00040007001101ba00a7
:1002e0000200e000e8ff3a00000006003159ba00c1
:1002f0008301e9000c0032002159ba008301e900b2
:10030000080032000400e00003003a00e2804000f0
:1003100032a0b400f5ff370011d9ba008301e9001b
:10032000faff3a008100e800e180400032a0b4000a
:10033000000006003200f800910188000008bb00b0
:10034000410424006210e100040032000002200099
:100350000010e1000a003a0051042400013b88002b
:100360000500fc0051052000313b8800a10a200057
:10037000313b880061e7a800000000000000000099
:100380003200f900000006003200f800600424008a
:10039000003b8800f2ff37003200f800910188002e
:1003a00041002400013b88000208bb00ecff37003d
:1003b0003200f8009101880051002400013b8800c0
:1003c000030120003218bb008301e900fdff3a0061
:1003d000e3ff370003f0a200889fbe008a9fbe00a3
:1003e0008c1f7800f3000700fa0033006450e1002e
:1003f0004f0032006420e1005200320003826c00a2
:1004000007003b000905d0000306d000820f54000e
:100410000c065d00020039000200320089017800fc
:10042000030678008582550004003d000003fd00ae
:100430008103fd008502ea008b854200840f720073
:1004400002003b0060001000e08018006011b8005e
:100450000005eb007a28e1000a0039000600780068
:10046000c75ddd00f707b200878075002d003700fb
:10047000828171000a017800610560008180d100ed
:100480000080d3008502e900f9ff3b00060440002c
:100490008784480002003b0060041400e0841c00d4
:1004a0000988a300070032008a81710082817100ef
:1004b000610164008904d1000884d3008b05e80041
:1004c000170037000978a30013003a000b00e00082
:1004d000130034008b05e9000804440089844c00b3
:1004e0000a4474000978a3000d003a000b00e000f4
:1004f000070034008b05e9000804440089844c009f
:1005000001003a000b0020000978a300f7ff320039
:100510000001eb0002003700828171000a017800bf
:10052000690007000cf0a70001f0a000b20037003e
:100530006420e10002003a00838f6c00b2003300b7
:100540000801be000200be00ab003700889fbe005d
:100550008a9fbe008c1f7800960007009d00330024
:1005600003866c006450e1002e0032006420e1003c
:10057000330032006150e1002f0032006120e100c1
:100580003100320085855500eb07b00009002000de
:1005900008042000050037000804440089844c004a
:1005a0000a0031000603430087834b00000153001b
:1005b00081815b00f8ff33000203be000800a00049
:1005c0000804440089844c00f6ff3900c639dd0078
:1005d0008301730001003200130020008904d10060
:1005e0000884d3000998a300050032000800a70082
:1005f0000300a0008904d1000884d3008b05e80023
:100600008904d1000884d3000001eb000281d200ec
:100610002d00070001f0a1000cf0a70001f0a000e0
:10062000750037006420e100770032000801be0049
:100630000200be00f7ff37006120e10072003200c7
:100640006000b800f3ff37000000200001f8270029
:10065000f0ff37000001be00410007000470a70052
:1006600003f0a10003f8a30013003a006509b100ec
:1006700010003200090035006928e1000200350051
:1006800001002800000005000000400081804800b3
:100690008502e900fcff3a0000000600f88f4200e6
:1006a000050035008100d1000080d3008502e800fc
:1006b000fcff3a00000006008000eb00000005008f
:1006c0006011b8009700370081002000618055005c
:1006d0000b003d000b00200061fe2f000100e10037
:1006e0001d00340082817100610164008904d10021
:1006f0000884d3000000e800faff3a0071002000ef
:100700006100640003007000020060000900320014
:1007100061044400e0844c000988a5000500320013
:100720008b05e8006808e10002003a008904d10066
:100730000884d300f20f20000258e10005003d00bc
:10074000c75ddd00f907b2008980750008007800f8
:10075000000006000bf827008b0078000000050061
:10076000c70ade00f107b200f50fb2000800320040
:10077000e1cf4200020032000170a0002400050019
:10078000810f7000010032000408050044000500dc
:10079000810f700002003a00140005008502e90094
:1007a0000000400081c04800fcff3b000170a00039
:1007b000240005000004be00e9ff07000003be009e
:1007c0000405be000200be00e5ff0700844f75006f
:1007d000000006000200be006450e1000500360083
:1007e0006420e100020036000968a30001003a001d
:1007f0000800be000160a0004f0678004f05be0053
:100800004f04be0000000600f0ff2f00f1ff27009c
:10081000f9ff3700889fbe008a9fbe008c1f7800ba
:10082000e4ff0700ebff330003866c006450e10037
:10083000240032006420e100270032006150e10012
:10084000220032006120e100210032008b8542004d
:10085000eb07b1000134b800003ab80008044200c8
:1008600089844a00013ab8000030b800888040000e
:1008700009014a0004003300000040008180480064
:10088000020149008b05e900c909dd008301700000
:100890000100320013002000c814de004814dd00ff
:1008a0004709de001200b200c808de0008847000ac
:1008b00085ff070001f0a1000cf0a70001f0a000e7
:1008c000cdff37006120e100cfff32000801be00fc
:1008d0000200be00f7ff37006150e100fcff3a0064
:1008e000c9ff37006022b800060220000000d000d7
:1008f0008180d2000482d2008582d2000000a00054
:100900000202520083825a000300310002024200b8
:1009100083824a000000a1000603e900f3ff3a00c9
:1009200000000600889fbe008a9fbe000082700003
:100930000402710004827100260032000004be002f
:100940000200be006011b8006b0920009502200073
:100950000182cf000a0039000541b1000082cf00ba
:10096000070039000541b1000982cf0004003900b9
:100970000541b1000882cf00010039000541b100f6
:1009800005425200120032000a003b0082817100d1
:10099000610164008100d1000080d3008984d3000c
:1009a0000884d3008b05e8000442e800f7ff3a0012
:1009b000070037000804440089844c000000480008
:1009c000818048008b05e9000442e900f9ff3a0004
:1009d0003dff07004f05be004f04be0000000600ab
:020000040000fa
:1009e0000000000000800000000000000080000007
:1009f00000000000008000000000000000800000f7
:100a000000000000008000000000000000800000e6
:100a100000000000008000000000000000800000d6
:100a200000000000000000000000000000000000c6
:100a300000000000000000000000000000000000b6
:100a400000000000000000000000000000000000a6
:100a50000000000000000000000000000000000096
:100a60000f0000005f000000af000000ff0000006a
:020000040000fa
:100a70000000fa00a4002000a45388000100070031
:100a8000feff37000000fa00a45380006123b80085
:100a900064ff2f00f5ff2f000602420087824a0004
:100aa0002603200007002000860f5200878f5a007f
:100ab000cf003e000460010032003700cc00370058
:100ac000cb003700ca003700c9003700c800370024
:100ad000c7003700c6003700c5003700c400370024
:100ae0003e003700c2003700c1003700c0003700a9
:100af000bf003700be003700bd003700bc00370024
:100b0000bb003700ba00370049003700b800370093
:100b1000b7003700b6003700b5003700b400370023
:100b2000b3003700b2003700b1003700b000370023
:100b300057003700ae003700ad003700ac0037007b
:100b4000ab003700aa003700a9003700a800370023
:100b5000a7003700a600370071003700a400370057
:100b6000a3003700a2003700a1003700a000370023
:100b70009f0037009e0037009d0037009c00370023
:100b8000890037000042eb000002fd0088eab70050
:100b90000002fd00a00f0700b8080700710e070053
:100ba000004278000002fd0088eab7000002fd0064
:100bb00000c2eb000002fd0088eab7000002fd0061
:100bc0008809a8008849a800d502a900cfa2a900d9
:100bd00044012000a45388008e0037008809a80033
:100be0008849a800d502a900cfa2a9000c003700af
:100bf0008a040700f2050700670407008553800098
:100c0000b4122000848f52000500360094538000f7
:100c1000ef0f520002003a00e4012000a4538800c4
:100c2000a4538000f40f5200f1ff32007900370026
:100c30008849a9008809a900d502a900cfa2a90066
:100c40000f00370075040700dd050700449c2000f5
:100c50001402780064026200e00f520002003a00c1
:100c600084022000a4538800a49820001402780075
:100c7000e00f520002003200c4032000a453880099
:100c8000a4538000fe0f5200eeff320061003700d7
:100c90008849a9008809a900d502a800cfa2a90007
:100ca0001a0037005d040700c5050700449c2000ba
:100cb0001402780068026200e00f520006003a0059
:100cc0003417800064026200e00f5200020032001c
:100cd00024032000a4538800449c200014027800c0
:100ce00064026200e00f520002003200e4012000c2
:100cf000a4538800a498200014027800e00f52004a
:100d000002003200c4032000a4538800a5538000d1
:100d100084022000848f5200e2ff32003d00370041
:100d20008849a9008809a900d502a800cfa2a80077
:100d30001800370039040700a1050700449c200073
:100d40001402780068026200e00f520009003a00c5
:100d5000449c20001402780064026200e00f5200fc
:100d600004003a003417800064026200e00f520071
:100d700002003a0084022000a4538800a4982000b6
:100d800014027800e00f520002003200c403200079
:100d9000a4538800a553800024032000848f5200b0
:100da000e4ff32001b0037008849a9008809a80029
:100db000d502a900cfa2a900080037001704070038
:100dc0007f050700a498200014027800e00f52006d
:100dd00002003a0044012000a4538800a55380007b
:100de000c4032000848f5200f4ff32000900370052
:100df0008849a8008809a800d502a900cfa2a900a7
:100e000064042000a4538800040407006c05070054
:100e1000fdff37000080fa0000000600801f780008
:100e2000841f78004400f8004200f8000000fa0037
:100e30008880a90004088000c45388000002eb00e9
:100e4000040888002404800068026200e00f520059
:100e50000200320054422f00c4538800449c2000fa
:100e60001402780064026200e00f520005003a00ac
:100e7000449c20001402780068026200e00f5200d7
:100e80000200320054422f00c45388008460a9003d
:100e900014002000f45388000080fa004200f9009a
:100ea0004400f9004f0278004f007800004006002f
:100eb0000400fa00e8c2a90000000000d682a900e0
:100ec000000000001000200001002000f70f0700c4
:100ed000d682a800000000001000200001002000c1
:100ee000f20f0700341780004722de0061426200e3
:100ef0000482fb00040f78000042eb0024479800b6
:100f000012003700e8c2a800000000001e027800ae
:100f100004024200040f7800341780004722de00ec
:100f2000614262000482fb001e0f7200e8c2a90049
:100f3000000000001000200001002000db0f07006f
:100f40002e4290000442e800244798002e42900070
:100f5000e74f5200ebff3600d682a90000000000e8
:100f6000041020001e026200e00f52000500320053
:100f700000c2eb000002fd0080eab7000002fd00a5
:100f8000040037001e027800044278000400780054
:100f900080eab70004a820001442780004407800da
:100fa0000d000700004278000002fd0081eab70052
:100fb0000002fd0014a8200014427800ec4f42000b
:100fc00002003e00e042a90001003700e042a80014
:100fd0000080fa00000006000400fa002047980094
:100fe0002e429000ea4f5200120036000002eb0041
:100ff000040f7800040037002e4290000442e900fc
:10100000244798001e0fe8002e4290008482fb00c7
:10101000b4002000110009008482d8000102780089
:10102000044278000482fb009e0f5200f2ff3d0054
:10103000020037000042eb002447980095a82000ea
:10104000954278002e42900084cf52001100320069
:10105000e4a82000144278000442e8000002fd00e9
:101060008eeab7000002fd00e4a8200014427800d8
:10107000ee4f520004003e0094a820001442780075
:1010800024479800060037002e40900089eab700f8
:10109000030037000042eb00040078008eeab7003e
:1010a0002e429000044078000080fa000000060004
:1010b0000000fa004416800068026200e00f52004f
:1010c000210032004416800064026200e00f5200ea
:1010d0001d00320015168000040021000482620009
:1010e000e00f52000c00320000000000d6e2a80021
:1010f00000000000d662a80000000000d1c2a800d5
:101100000000000014c0b3000002fd008aeab7002e
:101110000002fd002600370000000000d6e2a90012
:1011200000000000d662a80000000000d1c2a900a3
:10113000000000000042eb000002fd008aeab70058
:101140000002fd001a0037004416800064026200ad
:10115000e00f52000c00320000000000d6e2a800b0
:1011600000000000d662a90000000000d1c2a90062
:10117000000000000042eb000002fd008aeab70018
:101180000002fd000a00370000000000d6e2a800bf
:1011900000000000d662a90000000000d1c2a80033
:1011a0000000000014c0b300040078008aeab70011
:1011b0000080fa00000006000c00fa00d6a2a80089
:1011c00000000000d6c2a90000000000a4a8200072
:1011d00014427800e14f520015003a00a4a6200006
:1011e000144278000002fd0084eab7000002fd000e
:1011f00064a62000144278000002fd0085eab700d2
:101200000002fd0084a62000144278000002fd00c8
:1012100086eab7000002fd00c4a620001442780050
:101220000002fd0087eab7000002fd00140037004d
:10123000b4a62000144278000002fd0084eab70042
:101240000002fd0074a62000144278000002fd0098
:1012500085eab7000002fd0094a620001442780041
:101260000002fd0086eab7000002fd00d4a62000bf
:10127000144278000002fd0087eab7000002fd007a
:101280000002eb00040f78000b00370014a82000c8
:10129000144278008482fb00065328001e02780066
:1012a000040242000402430014027800848f5200ba
:1012b000050036001e0fe8001e027800e30f520002
:1012c000f2ff360001003700000000001e02780027
:1012d000e00f52001a003a00a4a82000144278003f
:1012e000e14f52000b003a0094a520001442780010
:1012f0000002fd0082eab7000002fd0014a62000f3
:10130000144278000002fd0083eab7000002fd00ed
:10131000a4013700d4a52000144278000002fd008b
:1013200082eab7000002fd0054a6200014427800b3
:101330000002fd0083eab7000002fd0099013700ba
:101340001e027800e30f52001a003600a4a8200005
:1013500014427800e14f52000b003a0064a52000cf
:10136000144278000002fd0082eab7000002fd008e
:10137000e4a52000144278000002fd0083eab700d3
:101380000002fd0087013700a4a520001442780068
:101390000002fd0082eab7000002fd0024a6200042
:1013a000144278000002fd0083eab7000002fd004d
:1013b0007c0137001e027800e10f52007c003a00e9
:1013c000a4a8200014427800e14f52003c003a00eb
:1013d00014a82000144278008480fb0084a520001b
:1013e000144278000480fb0094a520001442780089
:1013f0008483fb00055328001e027800040242008b
:1014000004824200140378001e02e90005532800fc
:101410000402420004824200940278000102780033
:1014200080017800070178008600780005007800c8
:10143000f9010700000278000442780004007800f7
:1014400082eab70014a82000144278008480fb00d0
:1014500004a62000144278000480fb0014a620009b
:10146000144278008483fb00055328001e02780094
:101470000402420004824200140378001e02e900c4
:1014800005532800040242000482420094027800be
:10149000010278008001780007017800860078005a
:1014a00005007800dc0107000002780004427800a3
:1014b0000002fd0083eab7000002fd003901370099
:1014c00014a82000144278008480fb00c4a52000ea
:1014d000144278000480fb00d4a520001442780058
:1014e0008483fb00055328001e027800040242009a
:1014f00004824200140378001e02e900055328000c
:101500000402420004824200940278000102780042
:1015100080017800070178008600780005007800d7
:10152000bd01070000027800044278000400780042
:1015300082eab70014a82000144278008480fb00df
:1015400044a62000144278000480fb0054a620002a
:10155000144278008483fb00055328001e027800a3
:101560000402420004824200140378001e02e900d3
:1015700005532800040242000482420094027800cd
:101580000102780080017800070178008600780069
:1015900005007800a00107000002780004427800ee
:1015a0000002fd0083eab7000002fd00fd003700e5
:1015b0001e027800e20f52007c003a00a4a820002e
:1015c00014427800e14f52003c003a0014a8200079
:1015d000144278008480fb0074a520001442780037
:1015e0000480fb0084a52000144278008483fb0063
:1015f000055328001e0278000402420004824200c3
:10160000140378001e02e90005532800040242007a
:101610000482420094027800010278008001780080
:101620000701780086007800050078007a0107003d
:1016300000027800044278000400780082eab700d3
:1016400014a82000144278008480fb00f4a5200038
:10165000144278000480fb0004a6200014427800a5
:101660008483fb00055328001e0278000402420018
:1016700004824200140378001e02e900055328008a
:1016800004024200048242009402780001027800c1
:101690008001780007017800860078000500780056
:1016a0005d01070000027800044278000002fd009e
:1016b00083eab7000002fd00ba00370014a820003a
:1016c000144278008480fb00b4a520001442780006
:1016d0000480fb00c4a52000144278008483fb0032
:1016e000055328001e0278000402420004824200d2
:1016f000140378001e02e90005532800040242008a
:10170000048242009402780001027800800178008f
:101710000701780086007800050078003e01070088
:1017200000027800044278000400780082eab700e2
:1017300014a82000144278008480fb0034a6200006
:10174000144278000480fb0044a620001442780074
:101750008483fb00055328001e0278000402420027
:1017600004824200140378001e02e9000553280099
:1017700004024200048242009402780001027800d0
:101780008001780007017800860078000500780065
:101790002101070000027800044278000002fd00e9
:1017a00083eab7000002fd007e0037001e027800c9
:1017b000e30f52007b003a00a4a8200014427800f6
:1017c000e14f52003c003a0014a820001442780077
:1017d0008480fb0064a52000144278000480fb0094
:1017e00074a52000144278008483fb000553280070
:1017f0001e027800040242000482420014037800b2
:101800001e02e9000553280004024200048242003f
:1018100094027800010278008001780007017800c6
:101820008600780005007800fb00070000027800c1
:10183000044278000400780082eab70014a820006f
:10184000144278008480fb00e4a520001442780054
:101850000480fb00f4a52000144278008483fb0080
:10186000055328001e027800040242000482420050
:10187000140378001e02e900055328000402420008
:10188000048242009402780001027800800178000e
:10189000070178008600780005007800de00070068
:1018a00000027800044278000002fd0083eab700dd
:1018b0000002fd003b00370014a82000144278000d
:1018c0008480fb00a4a52000144278000480fb0063
:1018d000b4a52000144278008483fb00055328003f
:1018e0001e027800040242000482420014037800c1
:1018f0001e02e9000553280004024200048242004f
:1019000094027800010278008001780007017800d5
:101910008600780005007800bf000700000278000c
:10192000044278000400780082eab70014a820007e
:10193000144278008480fb0024a620001442780022
:101940000480fb0034a62000144278008483fb004e
:10195000055328001e02780004024200048242005f
:10196000140378001e02e900055328000402420017
:10197000048242009402780001027800800178001d
:10198000070178008600780005007800a2000700b3
:1019900000027800044278000002fd0083eab700ec
:1019a0000002fd000002eb00040f78008900370000
:1019b0001e027800e00f520007003a0034a8200011
:1019c000144278000482fb000500200024079800e0
:1019d00035079800350037001e027800e10f5200ed
:1019e00007003a0024a82000144278000482fb007b
:1019f0000500200024079800350798002b003700c9
:101a00001e027800e20f520007003a0044a82000ae
:101a1000144278000482fb0005002000240798008f
:101a200035079800210037001e027800e30f5200ae
:101a300007003a0054a82000144278000482fb00fa
:101a4000050020002407980035079800170037008c
:101a50001e027800e40f520007003a0074a820002c
:101a6000144278000482fb0005002000240798003f
:101a7000350798000d0037001e027800e50f520070
:101a800007003a0064a82000144278000482fb009a
:101a90000500200024079800350798000300370050
:101aa0006022b80024079800350798000002eb0078
:101ab000140798002c003700e8c2a90000000000bd
:101ac0002e039000be0390000408200005002000b3
:101ad0000600780007037800840378000502780088
:101ae000070060000402630005002000c022dd0042
:101af000040020000403be006102b8000403730068
:101b00008583730046079800570798002e029000bf
:101b1000be0290000402420085824a002407980019
:101b2000350798004e039000de0390000408200063
:101b300005002000840f5300858f5b0003003a00ee
:101b4000e902a8000000000002003700e902a90035
:101b500000000000e8c2a800000000001e02900083
:101b60000402e800140798001e029000e70f5200dc
:101b7000d1ff36001e027800e10f520005003a0046
:101b8000d762a90000000000d762a8000000000092
:101b90000f0037001e027800e30f520005003a00e4
:101ba000d782a90000000000d782a8000000000032
:101bb000070037001e027800e50f520004003a00cb
:101bc000d7a2a90000000000d7a2a80000000000d2
:101bd0001e0fe8001e027800e50f520074ff360069
:101be000d6a2a90000000000051780000404200010
:101bf00004826200e00f520004003a00d6c2a8003e
:101c0000000000008a69a900010037008a69a80065
:101c10000080fa00000006001400fa00889fbe0051
:101c20008a9fbe00500798006107980072079800cd
:101c3000030f9800140f98007e029000040f7800a4
:101c4000ee0290005e029000848f52004c0036003d
:101c50000e0a9000050020000400be0098fa07005c
:101c60000004be007e029000050020000400be00bb
:101c700093fa07000002be000401be000800be0087
:101c8000d4f907000002be000404be006e029000fa
:101c9000050020000400be0089fa07000005be0010
:101ca0005e029000050020000400be0084fa0700d8
:101cb0000002be000401be000a00be00c5f9070014
:101cc0000002be000401be000800be001ffa0700ab
:101cd0000002be0014079800250798001e0a900015
:101ce000050020000400be0075fa07000004be00d5
:101cf0005e029000050020000400be0070fa07009c
:101d00000002be000401be000800be00b1f90700d9
:101d10000002be0034079800450798001e0190009d
:101d2000ae0190003e009000ce009000b9fa07008e
:101d30000002be0034079800450798007e0290001c
:101d4000050020000400be005dfa07000002be008e
:101d50000401be003e009000ce0090009ef90700f6
:101d60000002be0034079800450798003e0090002e
:101d7000ce00900037fa07000002be00040f780082
:101d80001e027800040078004f05be004f04be001c
:101d90000080fa00000006000000fa008453800072
:101da0004422de00630262000500200036002000ad
:101db00007002000860f5200878f5a0015003e0052
:101dc00004600100030037000600370009003700f7
:101dd0000c003700e9a2a800e9e2a800d022a80080
:101de0000c003700e9a2a900e9e2a800d022a8006f
:101df00008003700e9a2a800e9e2a900d022a80063
:101e000004003700e9a2a800e9e2a800d022a90056
:101e1000000000000080fa00000006000400fa0044
:101e2000f4538000e00f5200280032000002eb0063
:101e3000f453880005178000040420000482620027
:101e4000e00f520003003a0019fc070098fc07005d
:101e5000050037008a69a8000042eb000002fd007f
:101e600081eab7000002fd00d3fc0700c5538000e3
:101e7000d453800022002000850078000400780000
:101e8000f40b070000027800d4538800449c200023
:101e90001402780062026200e00f5200010032007a
:101ea0002a080700e45380000402e800e453880095
:101eb000e5538000a4a82000144278000482fb00af
:101ec00085007800040078000605070064a520005e
:101ed000144278000482fb00c822dd0074a52000b3
:101ee000144278000482fb0004824200444b8800c4
:101ef00084a52000144278000482fb00c822dd0083
:101f000094a52000144278000482fb000482420061
:101f1000544b880064a62000144278000482fb0021
:101f2000c822dd00a4a62000144278000482fb0031
:101f300004824200644b8800e4a52000144278002b
:101f40000482fb00c822dd00f4a5200014427800c2
:101f50000482fb0004824200744b880004a6200027
:101f6000144278000482fb00c822dd0014a6200081
:101f7000144278000482fb0004824200844b8800f3
:101f800084a62000144278000482fb00c822dd00f1
:101f9000c4a62000144278000482fb0004824200a0
:101fa000944b8800a4a52000144278000482fb0012
:101fb000c822dd00b4a52000144278000482fb0092
:101fc00004824200a44b8800c4a52000144278007b
:101fd0000482fb00c822dd00d4a520001442780052
:101fe0000482fb0004824200b44b880074a62000e7
:101ff000144278000482fb00c822dd00b4a6200051
:10200000144278000482fb0004824200c44b880022
:1020100024a62000144278000482fb00c822dd00c0
:1020200034a62000144278000482fb00048242009f
:10203000d44b880044a62000144278000482fb00a0
:10204000c822dd0054a62000144278000482fb0060
:1020500004824200e44b880094a6200014427800d9
:102060000482fb00c822dd00d4a6200014427800c0
:102070000482fb0004824200f44b8800a5538000d8
:10208000c4032000848f520008003a00449c2000c2
:102090001402780061026200e00f52000300320077
:1020a000a49820008002eb00050a78000517800044
:1020b0000410200004826200e00f520001003a0088
:1020c0008a09a80005178000040820000482620025
:1020d000e00f520001003a008a29a800341780005e
:1020e00061026200e00f520001003a008ac9a800b4
:1020f000151680000408200004826200e00f5200e0
:1021000001003a008ae9a800a51680000400240016
:1021100004826200e00f520001003a008a49a800e0
:102120003417800068026200e00f520005003200a0
:102130003417800064026200e00f520001003a0090
:102140008a89a800341780006402620004f0a700a6
:102150000402ea000402e9004f22de000442780093
:102160000482fb00610262004822dd00464c8000d0
:10217000f5ef2f008502630005027200444c8800d1
:10218000341780006802620004f0a7000402ea002d
:102190000402e9004f22de00044278000482fb00c2
:1021a000610262004922dd00464c8000f5df2f000d
:1021b0008502630005027200444c880044168000ca
:1021c0004322de00614262000482fb006102620081
:1021d0004d22dd00464c8000f5ff2d008502630096
:1021e00005027200444c8800441680004222de0042
:1021f000614262000482fb00610262004e22dd0047
:10220000464c8000f5ff2b0085026300050272003a
:10221000444c880064548000644c880084a82000ea
:10222000144278000482fb00744c8800350480005e
:102230000402200004826200e00f520058003200c5
:1022400086a0a900b45380006102620004427800b5
:10225000e04f520002003200d542a80001003700d2
:10226000d542a900b453800062026200e00f520020
:1022700002003200e982a90001003700e982a800cb
:10228000b453800064026200e00f52000300320089
:10229000e9a2a900c882a80002003700e9a2a800ac
:1022a000c882a900b453800068026200e00f5200a7
:1022b00003003200d022a900d402a8000200370097
:1022c000d022a800d402a900745380006a02420000
:1022d00074538800449c200034029000e10f4200b7
:1022e00007003a000002eb0074538800ff3ffc0037
:1022f000449c20008002eb00350298000000fc00a6
:102300007553800054092000848f5200010036006c
:102310008aa9a800845380000402e800845388003e
:10232000845380004522de0004427800614262004e
:1023300061426200614262000482fb00610262004d
:102340004c22dd0046178000f5ff2e008502630059
:10235000050272004417880044782d0075012000a2
:10236000048fbe00d4538000050020000401be008d
:102370001e00be005bf907000002be00048fbe0015
:102380001e02780064548800240480006802620001
:10239000e00f5200020032000002eb00645488009b
:1023a0000080fa00000006000000fa0000000000b3
:1023b000000000000000fe000080fa00004006005f
:1023c0000000fa00d51c800004f02f008482620017
:1023d000264d800004f02f0004026300848f520019
:1023e0000a003600254d8000f40f200004826200b0
:1023f000244d8800254d8000d61c800004f02f005d
:102400000402630004824200244d8800d51c800031
:10241000f40f200084826200264d8000f40f20001b
:1024200004026300848f52000a003600254d8000ac
:1024300004f02f0004826200244d8800254d8000a6
:10244000d61c8000f40f20000402630004824200c6
:10245000244d880054342c00244b880034122f0063
:10246000344b8800043a8000c44a880026000700e4
:10247000e9000700dd010700eb010700449c200094
:10248000940278000400280004826200e00f5200e9
:102490000100320015020700144e8000e44a880053
:1024a000e54a8000e44d800004824200e44a88004e
:1024b000e54a8000f44d800004824200e44a88002e
:1024c000e54a8000044e800004824200e44a88000d
:1024d000e54a8000c44d800004824200e44a88003e
:1024e000e54a8000b44d800004824200e44a88003e
:1024f000e54a8000a44d800004824200e44a88003e
:102500000080fa00000006000a00fa001d003700f3
:102510008e00780040802000010907009e027800ac
:102520008407200004826200f80f52000400320089
:10253000c44d80000402e800c44d8800110037003b
:102540009e02780084492100848f520003003a00e3
:102550000e007800160007000a0037009e0278007f
:1025600084612100848f520003003a000e0078003d
:102570006800070003003700a44d80000402e80053
:10258000a44d8800408020009708070000027800d2
:10259000e00f5200deff3a0094458000e44d8800d1
:1025a00054408000f44d88000080fa0000000600ce
:1025b0000400fa00100798001e029000c402900068
:1025c000050f780004002f009e0262000400230023
:1025d000848f520004003200b44d80000402e800f1
:1025e000b44d88001a003700f4ff20001e0f62006f
:1025f000f40f20009e027800848f520003003e00fa
:102600001e0090001400070011003700f41f200086
:102610009e027800848f520003003e001e0090004e
:10262000240007000a003700f43f20009e027800d3
:10263000848f520003003e001e0090002f0507000b
:1026400003003700b44d80000402e800b44d880058
:102650000080fa00000006000400fa00100798004d
:102660001e029000c4029000050f7800f4ff2000c5
:102670001e0f62001e027800e10f520003003200bc
:10268000e30f520003003200040037000000fe0098
:1026900006003700f604070004003700b44d800040
:1026a0000402e800b44d8800000000000080fa0039
:1026b000000006000400fa00100798001e029000b7
:1026c000c4029000050f7800f4ff20001e0f620086
:1026d0001e02900014029000840078001e00780012
:1026e000b50607001e029000a40290001e02e8003a
:1026f0008500780004007800af06070000000000a5
:102700000000000000000000000000000080fa004f
:10271000000006000e00fa00600798006e029000ac
:10272000c4029000050f780004002f009e02620092
:1027300004002300848f520004003200b44d800056
:102740000402e800b44d88002e003700f4ff20009a
:102750001e0f6200f48f20009e027800848f5200ca
:1027600004003600f49f20009e027800848f5200ff
:1027700004003600b44d80000402e800b44d880027
:102780002000370004802f001e0f4200c4012a00e1
:10279000140798006e029000c402900004802f007d
:1027a00004824200540798000002eb00440798009e
:1027b0001e02e80004007800a80607000002780066
:1027c000340798001e007800a40607000002780075
:1027d0002407980000000000000000000000000036
:1027e0000e82e80084007800c08a200034080700c8
:1027f000741b800068026200e00f520001003a0082
:102800008760a8000080fa00000006000000fa00bf
:102810000080fa00000006000000fa002504800095
:102820000404200004826200e00f5200a000320085
:1028300084c0a900044080000402e800044088002d
:10284000044080006f026200044088009a00070084
:102850000440800005002000f60020000700200052
:10286000860f5200878f5a0091003e0004600100dd
:102870000f00370018003700210037002a0037000a
:10288000330037003c003700450037004e0037006a
:1028900057003700600037006900370072003700ca
:1028a0007b0037007c0037007d0037007e0037005a
:1028b000f44a8000e74a8000d64a8000c54a80007a
:1028c0008701780006017800850078000000eb00a1
:1028d0008e0007007600370024962000140378004d
:1028e000054b80000002eb008001eb000601780040
:1028f0008500780010002000840007006c0037007d
:10290000744b8000674b8000564b8000454b800025
:1029100087017800060178008500780020002000fb
:102920007a00070062003700b44b8000a74b80009c
:10293000964b8000854b8000870178000601780067
:102940008500780030002000700007005800370034
:10295000f44b8000e74b8000d64b8000c54b8000d5
:10296000870178000601780085007800400020008b
:10297000660007004e003700344c8000274c800072
:10298000164c8000054c8000870178000601780015
:1029900085007800500020005c00070044003700ec
:1029a000544d8000474d8000364d8000254d8000fd
:1029b00087017800060178008500780080002000fb
:1029c000520007003a003700944d8000874d800088
:1029d000764d8000654d8000870178000601780003
:1029e0008500780090002000480007003000370084
:1029f000d44d8000c74d8000b64d8000a54d8000ad
:102a0000870178000601780085007800a00020008a
:102a10003e00070026003700144e8000074e80005d
:102a2000f64d8000e54d80008701780006017800b2
:102a300085007800b0002000340007001c0037003b
:102a4000d44c8000c74c8000b64c8000a54c800060
:102a5000870178000601780085007800600020007a
:102a60002a00070012003700144d8000074d800037
:102a7000f64c8000e54c8000870178000601780064
:102a80008500780070002000200007000800370053
:102a90002e05070006003700360507000400370042
:102aa00061050700020037008c05070000000000e8
:102ab0000080fa00000006000a00fa00c4812a0023
:102ac000040f7800849820001402780014079800fe
:102ad000a49820001402780024079800644c800019
:102ae00034079800744c800044079800e1352000ba
:102af0000e007800b9070700444d80000402e8008a
:102b0000444d88000080fa00000006001400fa001e
:102b1000500798006107980072079800030f98000b
:102b2000140f98005e0290006f0262005407980034
:102b3000de02900004032000050272005407980092
:102b40005e0290000402420054079800de029000ea
:102b50000460200005027200540798005e02900095
:102b60004222dd00540798005e029000040f7800b6
:102b70009e02780004f02f0004826200040f7800a7
:102b80001e0278004322dd00040f78009e027800c8
:102b90005e039000f40f200004026300050272003f
:102ba000040f78001e0a9000140798000e0a900087
:102bb000240798007e029000340798006e0290006f
:102bc000440798008e007800c08a20003c07070068
:102bd000741b800068026200e00f520001003a009e
:102be0008760a8000080fa00000006000000fa00dc
:102bf000250480000408200004826200e00f5200d7
:102c00000700320084e0a900144e80000402e800ae
:102c1000144e8800144e8000b45488008829a800ff
:102c20000080fa00000006000000fa001440800056
:102c3000e00f520005003a00444c8000610262003f
:102c4000e00f5200010032009bff0700444c80005f
:102c5000614262000482fb00144088000080fa0098
:102c6000000006000200fa00000f7800449c2000db
:102c70009e02780095029000050a78001e027800f6
:102c8000a4029000449c2000150298001e027800c7
:102c9000b4029000449c200025029800449c20002f
:102ca0008082eb00350298000060fe008829a900b0
:102cb0000002eb0054088800449c200014027800b5
:102cc00064026200e00f520005003a00449c2000bc
:102cd0001402780068026200e00f52000100320026
:102ce000cfa2a9000080fa00000006000000fa0050
:102cf0000002eb00944588000002eb00544088007d
:102d00000002eb00a45488000002eb00b4548800d9
:102d10000002eb00c44a88000002eb00d44a88009d
:102d20000002eb00e44a88000002eb00f44a88004d
:102d30000002eb00044b88000002eb00244b8800eb
:102d40000002eb00344b88000002eb00444b88008b
:102d50000002eb00544b88000002eb00644b88003b
:102d60000002eb00744b88000002eb00844b8800eb
:102d70000002eb00944b88000002eb00a44b88009b
:102d80000002eb00b44b88000002eb00c44b88004b
:102d90000002eb00d44b88000002eb00e44b8800fb
:102da0000002eb00f44b88000002eb00044c8800aa
:102db0000002eb00144c88000002eb00244c880059
:102dc0000002eb00344c88000002eb00244d880028
:102dd0000002eb00344d88000002eb00444d8800f7
:102de0000002eb00544d88000002eb00644d8800a7
:102df0000002eb00744d88000002eb00844d880057
:102e00000002eb00944d88000002eb00a44d880006
:102e10000002eb00b44d88000002eb00c44d8800b6
:102e20000002eb00d44d88000002eb00e44d880066
:102e30000002eb00f44d88000002eb00044e880015
:102e40000002eb00144e88000002eb00b41c880066
:102e500041e7a90041c7a90040e7a9004087a900b0
:102e60004067a9004047a9004027a9004007a900e2
:102e700040c7a9000080fa00000006000000fa0028
:102e8000a45480000402e800a4548800449c20005c
:102e90008002eb00050a7800449c20001500200009
:102ea00015029800449c200025002000250298006f
:102eb000449c20003500200035029800a454800076
:102ec000044b8800b4548000144e88008f60a90021
:102ed0008760a9000405800004c0a10004d0a100ff
:102ee00004e0a000040588000002eb00b41c880088
:102ef0009803a8009823a8009843a80098a3a800c6
:102f000040802000bf060700c08a2000bd060700e1
:102f100004402000841c880000000000851c800004
:102f2000040e20008482620004082000848f520076
:102f3000faff3a0014002000941c8800a4392000f5
:102f4000a41c88001480210084198800d4872100e3
:102f5000c41988000002eb000418880004802000d7
:102f6000441888008401210084188800c47f21004f
:102f7000c4188800c47f210004198800c47f210080
:102f80004419880014002000741b880024002000cd
:102f9000f41a880034002000741a8800040c200001
:102fa000241b8800040c2000a41a8800040c2000b4
:102fb000241a88000002eb00741c88000002eb0059
:102fc000f41b88000002eb00841c88000000000055
:102fd000851c8000040e200004826200e00f520075
:102fe000fbff3a008f60a80054fb2500840888008e
:102ff00024f42000640888000002eb0034088800f4
:1030000084c0a9008cc0a90011e1a800d4fb250050
:1030100094088800546222007408880084e0a900a3
:103020008ce0a90013e1a8000002eb00a44c88008a
:1030300074e82800b44c88000002eb00c44c8800ff
:1030400014042000d44c880044062000e44c88007e
:103050000080fa00000006003600f800809fbe00e5
:10306000829fbe00849fbe00869fbe00889fbe00d8
:103070004400f8004200f8000a00fa008760a90046
:10308000954d8000b41c800005027200944d8800ac
:10309000751c80000408200004826200e00f5200ca
:1030a00024003200741c800061026200e00f5200b4
:1030b0000f003a00644d80000402e800644d88006f
:1030c000e13820000e0078002802800019028000fc
:1030d000e705070019028800280288002e029000e8
:1030e000a44a88001e029000b44a880010003700ed
:1030f000744d80000402e800744d8800e13820001f
:103100000e0078002802800019028000d805070010
:1031100019028800280288000e007800280280002a
:1031200019028000cffe07001902880028028800db
:103130009603a900f51b80000408200004826200a9
:10314000e00f52000b003200844d80000402e800c2
:10315000844d8800e1372000408020002802800054
:1031600019028000a50507001902880028028800be
:103170009623a900741b800068026200e00f5200d1
:1031800014003a00c08a2000280280001902800042
:1031900095050700190288002802880000027800bf
:1031a000e00f52000b003200e1362000c08a200000
:1031b0002802800019028000f20507001902880029
:1031c000280288009643a900d44d80000402e8003c
:1031d000d44d8800b51c80000402200004826200e7
:1031e000e00f520009003200054e8000b41c800040
:1031f00005027200044e8800344d80000402e8008d
:10320000344d880096a3a9000800370045178000b8
:103210000400240004826200e00f52000200320029
:10322000e9c2a90001003700e9c2a800d51c80004e
:1032300004f02f0084826200264d800004f02f00ed
:1032400004026300848f52000a003600254d80007e
:10325000f40f200004826200244d8800254d800078
:10326000d61c800004f02f00040263000482420098
:10327000244d8800d51c8000f40f20008482620059
:10328000264d8000f40f200004026300848f52005a
:103290000a003600254d800004f02f0004826200f1
:1032a000244d8800254d8000d61c8000f40f20009e
:1032b0000402630004824200244d88000080fa006a
:1032c0004200f9004400f9004f04be004f03be0065
:1032d0004f02be004f01be004f00be003600f90095
:1032e000004006000e00fa005007980061079800a1
:1032f00084012000040f78006e02900014079800eb
:103300005e029000e00f5200030032000082eb00ea
:1033100024079800020037000002eb002407980001
:103320002e029000144c8800e13420000e0078003a
:10333000aa050700544d80000402e800544d88009f
:103340000080fa00000006001200fa001007980042
:103350002107980032079800034f980054079800ff
:103360006507980076079800070f98000002eb00a9
:10337000040f78001e0390006022b800048bbe008a
:103380001e0290008002eb00250298001e029000b1
:103390008002eb00350298001e029000ae02900001
:1033a000450298001e029000be029000550298004f
:1033b0000e4a9000ef4f52000d0036001e029000a2
:1033c00005002800650298001e0290008002eb00b4
:1033d000750298001e02900005002800050a98005a
:1033e0001e0290008002eb00150a98001f003700b3
:1033f0000e4a90000482fb000404b0004222dd006b
:10340000040f78001e007800940307000002780083
:10341000840278001e029000750298001e02e800e7
:10342000040078008d030700000278009e029000df
:10343000e40298001e82e800040078008703070079
:1034400000027800840278001e029000150a98009d
:103450009e02780063824200040078007f03070028
:10346000000278009e029000840a98001e029000dc
:10347000de029000250a98001e029000ee029000e5
:10348000350a98001e029000fe029000550a98002e
:103490001e0290008e0a9000650a98001e0290009d
:1034a0008002eb00750a98001e0290008002eb007b
:1034b000051298001e029000ceba970015129800cf
:1034c0000080fa00000006001000fa0010079800c3
:1034d0002107980032079800034f9800540798007e
:1034e00065079800760798000002eb00040f78004b
:1034f0001e0290008002eb00250298001e02900040
:10350000de029000350298001e029000ee0290004c
:10351000450298001e029000fe029000550298009d
:103520001e029000ae029000650298001e029000fc
:10353000be029000750298000e4a9000e74f5200bc
:103540000d0036001e02900005002800050a9800b4
:103550001e0290008002eb00150a98001e029000e7
:1035600005002800250a98001e0290008002eb004a
:10357000350a98001f0037000e4a90000482fb00b5
:103580000405b0004222dd00040f78001e00780020
:103590003203070000027800840278001e029000c7
:1035a000150a98001e02e800040078002b030700ab
:1035b000000278009e029000840a98001e82e800b3
:1035c00004007800250307000002780084027800d8
:1035d0001e029000350a98009e0278006382420025
:1035e000040078001d030700000278009e0290008e
:1035f000a40a98000080fa00000006000400fa0007
:10360000100798001e029000740390001e029000a4
:10361000e40290001e029000140278000601780077
:103620008500780004007800f505070000027800a6
:10363000040f78001e029000940a90001e02900071
:10364000040a900005017800840078001e007800cc
:10365000d605070000027800040f78001e029000d3
:10366000b40a90001e029000240a90000501780020
:10367000840078001e007800cc0507000002780066
:10368000040f78001e02900024029000e00f520008
:1036900003003a001e029000d4029000050f78004b
:1036a0001e0290009e027800150298000080fa0029
:1036b000000006000400fa00100798001e029000a7
:1036c000140b90001e029000840a90001e029000cd
:1036d000240290000601780085007800040078003c
:1036e000b205070000027800040f78001e02900067
:1036f000f40290001e029000640290000501780020
:10370000840078001e007800a805070000027800f9
:10371000040f78001e029000d40290001e02900058
:103720004402900005017800840078001e007800b3
:10373000b305070000027800040f78001e02900015
:103740009e027800350298000080fa000000060012
:103750000400fa00000f7800110798001e0278009c
:10376000b40290001e029000848f520003003100ca
:103770001e027800b4029000150798001e0278001f
:10378000c40290001e029000848f52000300360095
:103790001e027800c4029000150798001e027800ef
:1037a0009e029000050a78000080fa0000000600e2
:1037b0000200fa00000f78001e027800b4029000a8
:1037c0001e027800240a9000848f52000200360006
:1037d00014002000010037000002eb000400780014
:1037e0000080fa00000006000200fa00000f7800d6
:1037f0001e027800b40290001e027800340a900085
:10380000848f5200020031001400200001003700b4
:103810000002eb00040078000080fa0000000600bf
:103820000400fa00100798001e029000d40a9000cd
:103830001e029000440a90000001eb008500780011
:10384000040078005905070000027800040f780092
:103850001e029000640a90009e0f52000300360082
:103860001e029000e40a9000050f780004f02f007b
:103870009e0252001e029000440a9000848f520063
:10388000040036001e029000440a90001e0f420001
:103890000200370004f02f00040f78001e02900091
:1038a000340290009e0f5200060036001e02900067
:1038b000740a90008402e8001e029000750a9800c5
:1038c000090037001e029000740a9000e00f5200b9
:1038d000050032001e029000740a90008402e90084
:1038e0001e029000750a98001e029000f40a9000d3
:1038f0001e02900014129000848f52000f003900b5
:103900001e029000f40a90001e0290001412900013
:1039100004024200848f5200060039001e0290000b
:103920001412900004024200840278001e029000eb
:10393000750a980014002000010037000002eb0017
:10394000040078000080fa00000006000400fa007d
:10395000100798001e029000d40a90001e029000ea
:10396000440a90000001eb00850078000400780014
:103970000e05070000027800040f78001e02900078
:10398000640a90009e0f5200030036001e02900051
:10399000e40a9000050f78001e029000440a90008f
:1039a0009e0f5200040036001e029000440a900050
:1039b0001e0f5200020037000002eb00040f7800d7
:1039c0001e029000340290009e0f5200060031004b
:1039d0001e029000041290008402e8001e02900073
:1039e00005129800090037001e0290000412900092
:1039f000e00f5200050032001e02900004129000f9
:103a00008402e9001e029000051298001e02900038
:103a1000841290001e02900014129000848f5200b5
:103a20000f0039001e029000841290001e029000c8
:103a30001412900004024200848f520006003900e4
:103a40001e029000141290000402420084027800ca
:103a50001e0290000512980014002000010037009b
:103a60000002eb00040078000080fa00000006006d
:103a70000000fa00024f2800010120000001200090
:103a80001a020700024f2800010120001001200047
:103a900016020700024f280001012000200120002b
:103aa00012020700024f280001012000300120000f
:103ab0000e020700024f28000101200040012000f3
:103ac0000a020700024f28000101200050012000d7
:103ad00006020700025128000101200060012000b9
:103ae000020207000251280001012000700120009d
:103af000fe0107000080fa00000006000600fa0040
:103b0000200798002e029000c4029000050f780054
:103b10001e0278006123b80004e02c00f5ff2f009e
:103b20000602420087824a0046002000070020006b
:103b3000860f5200878f5a00fe003e00046001008d
:103b400004003700400037007c003700b800370021
:103b5000f40037002e029000340290004822de006c
:103b6000140798001e029000044278000002fd0035
:103b700056eab7000002fd002e029000b402900049
:103b8000f40f200004826200140798001e029000c7
:103b9000044278000002fd0057eab7000002fd0071
:103ba0002e029000240290004822de0014079800a4
:103bb0001e029000044278000002fd0058eab7009f
:103bc0000002fd002e029000a4029000f40f2000dd
:103bd00004826200140798001e02900004427800dc
:103be0000002fd0059eab7000002fd002e0290001d
:103bf000140290004822de00140798001e02900074
:103c0000044278000002fd0066eab7000002fd00f1
:103c10002e02900094029000f40f200004826200b3
:103c2000140798001e029000044278000002fd0074
:103c30006aeab7000002fd00945380000400a0006f
:103c400094538800bf0037002e0290003402900089
:103c50004822de00140798001e02900004427800fb
:103c60000002fd005eeab7000002fd002e02900097
:103c7000b4029000f40f2000048262001407980040
:103c80001e029000044278000002fd005feab700c7
:103c90000002fd002e029000240290004822de0067
:103ca000140798001e029000044278000002fd00f4
:103cb00060eab7000002fd002e029000a40290000e
:103cc000f40f200004826200140798001e02900086
:103cd000044278000002fd0061eab7000002fd0026
:103ce0002e029000140290004822de001407980073
:103cf0001e029000044278000002fd0068eab7004e
:103d00000002fd002e02900094029000f40f2000ab
:103d100004826200140798001e029000044278009a
:103d20000002fd006ceab7000002fd009453800021
:103d30000410a00094538800820037002e029000e7
:103d4000340290004822de00140798001e02900002
:103d5000044278000002fd005aeab7000002fd00ac
:103d60002e029000b4029000f40f20000482620042
:103d7000140798001e029000044278000002fd0023
:103d80005beab7000002fd002e02900024029000c2
:103d90004822de00140798001e02900004427800ba
:103da0000002fd005ceab7000002fd002e02900058
:103db000a4029000f40f200004826200140798000f
:103dc0001e029000044278000002fd005deab70088
:103dd0000002fd002e029000140290004822de0036
:103de000140798001e029000044278000002fd00b3
:103df00067eab7000002fd002e02900094029000d6
:103e0000f40f200004826200140798001e02900044
:103e1000044278000002fd006beab7000002fd00da
:103e2000945380000420a00094538800450037007c
:103e30002e029000340290004822de001407980001
:103e40001e029000044278000002fd0062eab70002
:103e50000002fd002e029000b4029000f40f20003a
:103e600004826200140798001e0290000442780049
:103e70000002fd0063eab7000002fd002e02900080
:103e8000240290004822de00140798001e029000d1
:103e9000044278000002fd0064eab7000002fd0061
:103ea0002e029000a4029000f40f20000482620011
:103eb000140798001e029000044278000002fd00e2
:103ec00065eab7000002fd002e0290001402900087
:103ed0004822de00140798001e0290000442780079
:103ee0000002fd0069eab7000002fd002e0290000a
:103ef00094029000f40f20000482620014079800de
:103f00001e029000044278000002fd006deab70036
:103f10000002fd00945380000430a00094538800f8
:103f2000080037002e02900014029000b45388005d
:103f300004003700b44d80000402e800b44d88004e
:103f4000000000000080fa00000006000000fa00f7
:103f5000e5538000940020008300200072002000c0
:103f600085007800c0032000e8fa07000080fa000e
:103f7000000006000000fa00e4a5200014427800ca
:103f80000482fb00c822dd00f4a520001442780062
:103f90000482fb00048262000400780064a6200012
:103fa000144278000482fb00c822dd00a4a6200091
:103fb000144278000482fb000482620084037800cb
:103fc00084a52000144278000482fb00c822dd0092
:103fd00094a52000144278000482fb000482620051
:103fe0000403780064a52000144278000482fb00da
:103ff000c822dd0074a52000144278000482fb0072
:104000000482620084027800000278008701780050
:104010000601780085007800d0032000bbfa070075
:104020000080fa00000006000000fa00c4a520008d
:10403000144278000482fb00c822dd00d4a52000d1
:10404000144278000482fb000482620004007800bd
:10405000a4a52000144278000482fb00c822dd00e1
:10406000b4a52000144278000482fb0004826200a0
:104070008403780084a62000144278000482fb00a8
:10408000c822dd00c4a62000144278000482fb0090
:10409000048262000403780004a620001442780021
:1040a0000482fb00c822dd0014a620001442780020
:1040b0000482fb000482620084027800000278001f
:1040c000870178000601780085007800e003200071
:1040d0008efa07000080fa00000006000000fa00d7
:1040e00094a62000144278000482fb00c822dd0060
:1040f000d4a62000144278000482fb0004826200ef
:104100000400780044a62000144278000482fb00da
:10411000c822dd0054a62000144278000482fb006f
:10412000048262008403780024a6200014427800f0
:104130000482fb00c822dd0034a62000144278006f
:104140000482fb00048262000403780074a620004d
:10415000144278000482fb00c822dd00b4a62000cf
:10416000144278000482fb0004826200840278001a
:104170000002780087017800060178008500780049
:10418000f003200061fa07000080fa00000006003a
:104190000c00fa00000f780012079800230798001f
:1041a0003407980045079800214f9800364f980033
:1041b0000080fa00000006000800fa0020079800be
:1041c00031079800ae029000f47f2000848f5200e7
:1041d00020003e0004002f00f5072000048fbe00e1
:1041e000053b80000400280004826200e00f5200ba
:1041f000fbff3a002e02900004024200050020005e
:104200003e014200ae814a000202be0022002000b0
:104210000400be0047f00700053b800004002800b2
:1042200004826200e00f5200fbff3a003e03900060
:104230002e02900004024200050020003e014200d0
:10424000ae814a000202be00060178000400be00f2
:1042500051f007000080fa00000006000200fa009a
:10426000000f7800f67f20009e037800868f5300b1
:104270001a003e00073b800006002800068363000a
:10428000e00f5300fbff3a001e03780006034300d3
:104290006133b90004002f00f50f20008600d00024
:1042a0000401d000028240004220a80085824b0019
:1042b0004200a9004220ae004200a8000482d300c0
:1042c000a601800085037800a70188000402780019
:1042d00014027800a6018800010037000082eb007c
:1042e000040078000080fa00000006002a00fa00ae
:1042f0002017980031179800421798004e1290002e
:1043000014027800240798004e1290000482e800fe
:1043100014027800340798004e12900064024200a4
:1043200014027800440798004e1290006602420082
:1043300014027800540798004e1290006802420060
:1043400014027800640798004e1290006a0242003e
:1043500014027800740798004e1290006c0242001c
:1043600014027800040f98004e1290006e02420072
:1043700014027800140f98004e1290007002420050
:1043800014027800240f98004e129000720242002e
:1043900014027800340f98004e129000740242000c
:1043a00014027800440f98004e12900076024200ea
:1043b00014027800540f98004e12900078024200c8
:1043c00014027800640f98004e1290007a024200a6
:1043d00014027800740f98004e1290007c02420084
:1043e00014027800041798004e1290007e024200da
:1043f0001402780014179800ae129000f407200001
:10440000848f520019003e0004002f00f5072000a1
:10441000048fbe002e1290004522dd000500200012
:104420001e0f42005e974a00053b800004002800f2
:1044300004826200e00f5200fbff3a0002022000fb
:104440001e00be00bbef0700053b800004002800f3
:1044500004826200e00f5200fbff3a006402470052
:10446000040178001e00be00d1ef07000080fa00b2
:10447000000006000a00fa002007980031079800a3
:10448000420798002e0390004433dd001607980081
:10449000073b80000600280006836300e00f5300fe
:1044a000fbff3a003e039000e00f53002b00320068
:1044b0003e039000f00f530002003600060120007a
:1044c00036079800ae039000f6072000868f530051
:1044d00022003e000003eb00060f78001b003700af
:1044e0001e03780006034300ce03900006804300bd
:1044f0001e0390001e034300060343006133b9000e
:1045000004002f00f50f20008600d0000401d00029
:10451000028340004220a80085834b004200a9008e
:104520004220ae004200a8000683d300a101800013
:1045300007017800a20188000603780016037800be
:10454000a1018800060878001e0fe8003e039000d5
:104550009e037800868f5300e1ff39000080fa0047
:10456000000006000600fa00d062a900d042a900af
:1045700010002000010020004c020700d042a800db
:10458000100020000100200048020700741680007f
:104590004422de00614262000482fb00040f7800c6
:1045a0000042eb002447980010003700d062a800ba
:1045b0001e02780004024200040f78007416800086
:1045c0004422de00614262000482fb001e0f720082
:1045d000d062a90010002000010020003302070073
:1045e0002e4290000442e800244798002e4290009a
:1045f000e74f5200edff36001e02780004427800bb
:1046000061426200344798001e027800044278003c
:1046100070426200444798004e4290000482fb00c2
:104620004422de00844278003e42900084cf520053
:104630000200320000c2eb00620037001e02780068
:104640000442780062426200344798001e027800fb
:10465000044278000442b200444798004e42900061
:104660000482fb004422de00844278003e42900037
:1046700084cf52000200320000c2eb00510037002c
:104680001e027800044278006442620034479800b9
:104690001e027800044278000444b20044479800a7
:1046a0004e4290000482fb004422de0084427800e7
:1046b0003e42900084cf52000200320000c2eb0064
:1046c000400037001e027800044278006842620011
:1046d000344798001e0278008442780004c8b30072
:1046e00004c26200444798004e4290000482fb00de
:1046f0004422de00844278003e42900084cf520083
:104700000200320000c2eb002e0037001e027800cb
:104710000442780068426200344798001e02780024
:10472000044278006742620044479800be4290000d
:104730004e42900084cf52000200320000c2eb00d3
:1047400020003700940920009e027800848f5200d8
:1047500002003a0024c0b3001a003700a40a200067
:104760009e027800848f520002003a0044c0b300d9
:1047700014003700c40c20009e027800848f520081
:1047800002003a0084c0b3000e0037007407200016
:104790009e027800848f520002003a0004c1b300e8
:1047a00008003700f40f20009e027800848f52002a
:1047b00003003a001e02780004427800010037002e
:1047c0000042eb00044078000080fa000000060080
:1047d0001001900090007800010051000000e900f5
:1047e000f000b20000000600100190009000780078
:1047f00002805000f000b200000006001170a60018
:104800001a003700e40140009309e800900190008d
:104810001001e800f200b2000310e10010003200c5
:10482000100178006a11b800e8014000828141005f
:104830006e8150009219780066014100b21978002b
:10484000b2197800b2197800b21978001001e800a6
:10485000f200b20002087800e60140009309e90086
:10486000e60140009309e8001170a1000000060075
:104870001170a600090037006e81500012187800f0
:10488000660141003218780032187800321878003a
:10489000321878001170a10008003700827f2100d3
:1048a0000218780002002000021878000218780030
:1048b0000218780002187800310037000000060066
:1048c000e40140009309e800900190001001e80025
:1048d000f200b2000310e1000e0032001001780077
:1048e0006a11b800e801400082814100b1197800e6
:1048f000b1197800b1197800b1197800b1197800b0
:104900001001e800f200b20002087800e601400061
:104910009309e900e60140009309e8000000060061
:1049200010019000900178000310e10008003a00a7
:10493000837f21008318780003002000831878000b
:104940008318780083187800831878000c003700eb
:104950006a11b8006801410000014100b2187800f6
:10496000b2187800b2187800b2187800b21878003f
:10497000100190000201e800f200b200120098005d
:10498000000006001130a70013003700100190004e
:10499000900178000310e1000f0032006a11b800a6
:1049a0006801410000014100ee815000b209780029
:1049b000e6814100b2197800b2197800b219780086
:1049c000b21978001130a000100190000201e80037
:1049d000f200b20012009800000006001130a100a1
:1049e0006e8150003009780066014100301978006e
:1049f0003019780030197800301978001130a00093
:104a0000000006000018eb000018eb000018eb0097
:104a10000008eb00000006000000fa000b00070091
:104a2000600007006a000700730007001400200000
:104a3000044d88000002eb00f44c880014002000b4
:104a4000144d88000080fa00000006000000fa0003
:104a5000dec2a800d682a900d6a2a900d6c2a900ab
:104a6000d282a900d2a2a900d2c2a900c1e2a800a4
:104a7000c1c2a800dec2a800d042a900cc42a90051
:104a8000d062a900cc62a900cc82a800de62a80096
:104a9000d3e2a900d7e2a800de42a900dee2a80026
:104aa000df02a800d3c2a800e442a800e662a90081
:104ab000e462a800c662a800c642a800d1c2a8004d
:104ac000cdc2a900d2e2a900d6e2a800d622a90050
:104ad000d222a900d642a800d242a900d662a800dc
:104ae000d262a900c182a800c1a2a800d302a90075
:104af000d502a900cda2a900cfa2a900d322a90066
:104b0000d522a900c6a2a900c8a2a900c682a900f0
:104b1000c882a900d202a900d402a900d342a900e8
:104b2000e5a2a900e9a2a800e582a900e982a800ff
:104b3000e5c2a900e5e2a900e9e2a800cc22a900ab
:104b4000d022a800e8c2a900e4c2a900e902a90095
:104b5000e502a900e4e2a800d382a900d782a90057
:104b6000d3a2a900d7a2a900d362a900d762a90045
:104b7000c0e2a800c0c2a800e402a800e422a90084
:104b8000e622a900de82a800dea2a900f40f200020
:104b9000441588000002eb00041588000080fa002c
:104ba000000006000000fa008880a9009080a8009c
:104bb0008260a800340580000400a0000410a0005a
:104bc0000420a000340588000080fa0000000600e0
:104bd0000000fa0054f92d00f4088800440d230069
:104be000d40888000002eb00a408880086a0a90071
:104bf0000080fa00000006000000fa00d4fa2d0040
:104c00002408880044422f00140888000080fa001d
:104c1000000006000200fa00000f78009e027800f3
:104c20000042eb0084c298009e0278000042eb0034
:104c300094c298000080fa00000006000400fa0008
:104c4000000f7800214798001e02780004c29000ef
:104c50000482fb009e0278002e43900086727a0048
:104c60001e02780004c290000442e8009e02780010
:104c700084c298001e02780004c29000f443b2007f
:104c80009e02780084c298001e02780084c29000c0
:104c90001e02780014c2900084cf52000a003a002d
:104ca0001e02780014c290000442e8009e027800c0
:104cb00094c298001e02780014c29000f443b2001f
:104cc0009e02780094c298000080fa00000006005e
:104cd0000400fa00100798001e02900094c2900091
:104ce000154798001e02900084c290001e4290005a
:104cf00084cf52000e0032001e4290000482fb005e
:104d00009e029000654f7a001e4290000442e80027
:104d1000144798001e429000f443b20014479800d4
:104d20001e0290009e42900015c2980002003700bb
:104d30000042eb00044f78001e42780004407800e7
:104d40000080fa00000006000200fa00000f780060
:104d50001e02780084c290001e02780014c29000e7
:104d600004c25200f443b200044078000080fa000c
:104d7000000006000200fa00000f78001e02780012
:104d800084c290001e02780014c2900084cf5200aa
:104d900002003a000042eb000100370014c0b300eb
:104da000044078000080fa00000006000200e000e5
:104db00005003b0002004000080031000000200018
:104dc000902aec0005003700020040000300390083
:104dd000f0ff2f00902aec00000037000101b8001e
:104de0006218b8000100e00002003200f0ff2f005e
:104df000902aec00cf10de000100700000000600d9
:104e00000200e00005003b00020040000800310005
:104e100000002000922aec0005003700020040004c
:104e200003003900f0ff2f00922aec000000370049
:104e30000101b8007018b8000100e0000200320063
:104e4000f0ff2f00922aec00cc10de000100700071
:104e5000000006007010e10001003500f2002000a3
:104e60000000e00001003a0001007800130020007b
:104e70008219dd008301e900001ab80004824000b5
:104e80000580b0000222de0070011100822add00e0
:104e9000050072000008e100030032000100350047
:0c4ea0000080e8000000e90000000600af
:020000040000fa
:104eac00f03fb1000180b10006003500ee030900af
:104ebc0000000000403fb1000180b100fbff3d004d
:104ecc001000b000203fb000020035000080090047
:084edc000000000000000600c8
:020000040000fa
:104ee400cc090000c400000000000000900a00008b
:104ef400040000000000000000080000cc010000d5
:084f04000000000000000000a5
:020000040000fa
:0200000400fffb
:10e000000000000000000000000000000000000010
:10e010000000000000000000000000000000000000
:10e0200000000000000000000000000000000000f0
:020000040000fa
:0200000401f009
:04000000ebbb000056
:020000040000fa
:0200000401f009
:04000400f7ff000002
:020000040000fa
:0200000401f009
:04000800efff000006
:020000040000fa
:0200000401f009
:04000c00ffff0000f2
:020000040000fa
:0200000401f009
:04001000ffff0000ee
:020000040000fa
:0200000401f009
:04001400ffff0000ea
:020000040000fa
:0200000401f009
:04001800ffff0000e6
:00000001FF
